{
  "contractName": "FlightSuretyApp",
  "abi": [
    {
      "inputs": [
        {
          "internalType": "address",
          "name": "_dataContractAddress",
          "type": "address"
        }
      ],
      "stateMutability": "nonpayable",
      "type": "constructor"
    },
    {
      "anonymous": false,
      "inputs": [
        {
          "indexed": false,
          "internalType": "string",
          "name": "message",
          "type": "string"
        }
      ],
      "name": "DebugLog",
      "type": "event"
    },
    {
      "anonymous": false,
      "inputs": [
        {
          "indexed": false,
          "internalType": "address",
          "name": "airline",
          "type": "address"
        },
        {
          "indexed": false,
          "internalType": "string",
          "name": "flight",
          "type": "string"
        },
        {
          "indexed": false,
          "internalType": "uint256",
          "name": "timestamp",
          "type": "uint256"
        },
        {
          "indexed": false,
          "internalType": "uint8",
          "name": "status",
          "type": "uint8"
        }
      ],
      "name": "FlightStatusInfo",
      "type": "event"
    },
    {
      "anonymous": false,
      "inputs": [
        {
          "indexed": false,
          "internalType": "address",
          "name": "airline",
          "type": "address"
        },
        {
          "indexed": false,
          "internalType": "string",
          "name": "flight",
          "type": "string"
        },
        {
          "indexed": false,
          "internalType": "uint256",
          "name": "timestamp",
          "type": "uint256"
        },
        {
          "indexed": false,
          "internalType": "uint8",
          "name": "status",
          "type": "uint8"
        }
      ],
      "name": "OracleReport",
      "type": "event"
    },
    {
      "anonymous": false,
      "inputs": [
        {
          "indexed": false,
          "internalType": "uint8",
          "name": "index",
          "type": "uint8"
        },
        {
          "indexed": false,
          "internalType": "address",
          "name": "airline",
          "type": "address"
        },
        {
          "indexed": false,
          "internalType": "string",
          "name": "flight",
          "type": "string"
        },
        {
          "indexed": false,
          "internalType": "uint256",
          "name": "timestamp",
          "type": "uint256"
        }
      ],
      "name": "OracleRequest",
      "type": "event"
    },
    {
      "inputs": [],
      "name": "REGISTRATION_FEE",
      "outputs": [
        {
          "internalType": "uint256",
          "name": "",
          "type": "uint256"
        }
      ],
      "stateMutability": "view",
      "type": "function",
      "constant": true
    },
    {
      "inputs": [
        {
          "internalType": "bool",
          "name": "mode",
          "type": "bool"
        }
      ],
      "name": "setOperatingStatusOfContract",
      "outputs": [],
      "stateMutability": "nonpayable",
      "type": "function"
    },
    {
      "inputs": [
        {
          "internalType": "address",
          "name": "airline",
          "type": "address"
        }
      ],
      "name": "allowAirlineParticipate",
      "outputs": [],
      "stateMutability": "payable",
      "type": "function",
      "payable": true
    },
    {
      "inputs": [
        {
          "internalType": "address",
          "name": "passenger",
          "type": "address"
        }
      ],
      "name": "createPassengers",
      "outputs": [],
      "stateMutability": "nonpayable",
      "type": "function"
    },
    {
      "inputs": [
        {
          "internalType": "address",
          "name": "passenger",
          "type": "address"
        },
        {
          "internalType": "string",
          "name": "flightName",
          "type": "string"
        }
      ],
      "name": "buyInsurance",
      "outputs": [],
      "stateMutability": "payable",
      "type": "function",
      "payable": true
    },
    {
      "inputs": [
        {
          "internalType": "uint256",
          "name": "statusCode",
          "type": "uint256"
        },
        {
          "internalType": "address",
          "name": "passenger",
          "type": "address"
        },
        {
          "internalType": "string",
          "name": "flightName",
          "type": "string"
        }
      ],
      "name": "creditPassengersWallet",
      "outputs": [],
      "stateMutability": "nonpayable",
      "type": "function"
    },
    {
      "inputs": [
        {
          "internalType": "address",
          "name": "passenger",
          "type": "address"
        }
      ],
      "name": "withdrawFromWallet",
      "outputs": [],
      "stateMutability": "payable",
      "type": "function",
      "payable": true
    },
    {
      "inputs": [],
      "name": "getcontractOwner",
      "outputs": [
        {
          "internalType": "address",
          "name": "owner",
          "type": "address"
        }
      ],
      "stateMutability": "view",
      "type": "function",
      "constant": true
    },
    {
      "inputs": [
        {
          "internalType": "uint8",
          "name": "code",
          "type": "uint8"
        },
        {
          "internalType": "uint256",
          "name": "timestamp",
          "type": "uint256"
        },
        {
          "internalType": "address",
          "name": "airline",
          "type": "address"
        }
      ],
      "name": "registerFlight",
      "outputs": [],
      "stateMutability": "nonpayable",
      "type": "function"
    },
    {
      "inputs": [
        {
          "internalType": "address",
          "name": "airline",
          "type": "address"
        },
        {
          "internalType": "string",
          "name": "flight",
          "type": "string"
        },
        {
          "internalType": "uint256",
          "name": "timestamp",
          "type": "uint256"
        }
      ],
      "name": "fetchFlightStatus",
      "outputs": [],
      "stateMutability": "nonpayable",
      "type": "function"
    },
    {
      "inputs": [],
      "name": "registerOracle",
      "outputs": [],
      "stateMutability": "payable",
      "type": "function",
      "payable": true
    },
    {
      "inputs": [],
      "name": "getMyIndexes",
      "outputs": [
        {
          "internalType": "uint8[3]",
          "name": "",
          "type": "uint8[3]"
        }
      ],
      "stateMutability": "view",
      "type": "function",
      "constant": true
    },
    {
      "inputs": [
        {
          "internalType": "uint8",
          "name": "index",
          "type": "uint8"
        },
        {
          "internalType": "address",
          "name": "airline",
          "type": "address"
        },
        {
          "internalType": "string",
          "name": "flight",
          "type": "string"
        },
        {
          "internalType": "uint256",
          "name": "timestamp",
          "type": "uint256"
        },
        {
          "internalType": "uint8",
          "name": "statusCode",
          "type": "uint8"
        }
      ],
      "name": "submitOracleResponse",
      "outputs": [],
      "stateMutability": "nonpayable",
      "type": "function"
    },
    {
      "inputs": [
        {
          "internalType": "address",
          "name": "airline",
          "type": "address"
        },
        {
          "internalType": "string",
          "name": "flight",
          "type": "string"
        },
        {
          "internalType": "uint256",
          "name": "timestamp",
          "type": "uint256"
        }
      ],
      "name": "getFlightKey",
      "outputs": [
        {
          "internalType": "bytes32",
          "name": "",
          "type": "bytes32"
        }
      ],
      "stateMutability": "pure",
      "type": "function",
      "constant": true
    }
  ],
  "bytecode": "0x60806040525f60035f6101000a81548160ff021916908360ff1602179055503480156200002a575f80fd5b50604051620030b3380380620030b383398181016040528101906200005091906200013b565b805f806101000a81548173ffffffffffffffffffffffffffffffffffffffff021916908373ffffffffffffffffffffffffffffffffffffffff1602179055503360015f6101000a81548173ffffffffffffffffffffffffffffffffffffffff021916908373ffffffffffffffffffffffffffffffffffffffff160217905550506200016b565b5f80fd5b5f73ffffffffffffffffffffffffffffffffffffffff82169050919050565b5f6200010582620000da565b9050919050565b6200011781620000f9565b811462000122575f80fd5b50565b5f8151905062000135816200010c565b92915050565b5f60208284031215620001535762000152620000d6565b5b5f620001628482850162000125565b91505092915050565b612f3a80620001795f395ff3fe6080604052600436106100dc575f3560e01c80638a7f47851161007e578063c89c8fb111610058578063c89c8fb114610232578063dfc0dff01461025c578063ef15757214610298578063f83f11c0146102c0576100dc565b80638a7f4785146101d2578063b6870b54146101ee578063c10f27001461020a576100dc565b806338c43938116100ba57806338c439381461012e5780635f1cc0e61461015657806364b4f751146101805780636621c185146101aa576100dc565b806321af612c146100e05780633045395314610108578063339d259014610124575b5f80fd5b3480156100eb575f80fd5b5061010660048036038101906101019190611e96565b6102e8565b005b610122600480360381019061011d9190612022565b6103ff565b005b61012c6106f1565b005b348015610139575f80fd5b50610154600480360381019061014f91906120b1565b6107d8565b005b348015610161575f80fd5b5061016a610a0c565b6040516101779190612181565b60405180910390f35b34801561018b575f80fd5b50610194610b44565b6040516101a191906121a9565b60405180910390f35b3480156101b5575f80fd5b506101d060048036038101906101cb91906121c2565b610b50565b005b6101ec60048036038101906101e791906121c2565b610d11565b005b610208600480360381019061020391906121c2565b610fa8565b005b348015610215575f80fd5b50610230600480360381019061022b91906121ed565b61121e565b005b34801561023d575f80fd5b50610246611597565b604051610253919061228f565b60405180910390f35b348015610267575f80fd5b50610282600480360381019061027d91906122a8565b6115bf565b60405161028f919061232c565b60405180910390f35b3480156102a3575f80fd5b506102be60048036038101906102b99190612345565b6115f4565b005b3480156102cb575f80fd5b506102e660048036038101906102e191906122a8565b6118f9565b005b5f8382846040516020016102fe9392919061244a565b6040516020818303038152906040528051906020012090505f60405180608001604052806001151581526020018660ff1681526020018581526020018473ffffffffffffffffffffffffffffffffffffffff1681525090508060025f8481526020019081526020015f205f820151815f015f6101000a81548160ff0219169083151502179055506020820151815f0160016101000a81548160ff021916908360ff160217905550604082015181600101556060820151816002015f6101000a81548173ffffffffffffffffffffffffffffffffffffffff021916908373ffffffffffffffffffffffffffffffffffffffff1602179055509050505050505050565b5f8054906101000a900473ffffffffffffffffffffffffffffffffffffffff1673ffffffffffffffffffffffffffffffffffffffff1663cd905dff6040518163ffffffff1660e01b8152600401602060405180830381865afa158015610467573d5f803e3d5ffd5b505050506040513d601f19601f8201168201806040525081019061048b919061249a565b6104ca576040517f08c379a00000000000000000000000000000000000000000000000000000000081526004016104c19061251f565b60405180910390fd5b5f8054906101000a900473ffffffffffffffffffffffffffffffffffffffff1673ffffffffffffffffffffffffffffffffffffffff16634a5fc2af336040518263ffffffff1660e01b8152600401610522919061228f565b602060405180830381865afa15801561053d573d5f803e3d5ffd5b505050506040513d601f19601f82011682018060405250810190610561919061249a565b6105a0576040517f08c379a000000000000000000000000000000000000000000000000000000000815260040161059790612587565b60405180910390fd5b5f341180156105b75750670de0b6b3a76400003411155b6105f6576040517f08c379a00000000000000000000000000000000000000000000000000000000081526004016105ed90612615565b60405180910390fd5b8173ffffffffffffffffffffffffffffffffffffffff163373ffffffffffffffffffffffffffffffffffffffff1614610664576040517f08c379a000000000000000000000000000000000000000000000000000000000815260040161065b906126a3565b60405180910390fd5b5f8054906101000a900473ffffffffffffffffffffffffffffffffffffffff1673ffffffffffffffffffffffffffffffffffffffff1663834518383484846040518463ffffffff1660e01b81526004016106bf92919061272b565b5f604051808303818588803b1580156106d6575f80fd5b505af11580156106e8573d5f803e3d5ffd5b50505050505050565b670de0b6b3a764000034101561073c576040517f08c379a0000000000000000000000000000000000000000000000000000000008152600401610733906127a3565b60405180910390fd5b5f61074633611a41565b905060405180604001604052806001151581526020018281525060045f3373ffffffffffffffffffffffffffffffffffffffff1673ffffffffffffffffffffffffffffffffffffffff1681526020019081526020015f205f820151815f015f6101000a81548160ff0219169083151502179055506020820151816001019060036107d1929190611cee565b5090505050565b5f8054906101000a900473ffffffffffffffffffffffffffffffffffffffff1673ffffffffffffffffffffffffffffffffffffffff1663fe81720b336040518263ffffffff1660e01b8152600401610830919061228f565b602060405180830381865afa15801561084b573d5f803e3d5ffd5b505050506040513d601f19601f8201168201806040525081019061086f919061249a565b6108ae576040517f08c379a00000000000000000000000000000000000000000000000000000000081526004016108a590612831565b60405180910390fd5b5f8054906101000a900473ffffffffffffffffffffffffffffffffffffffff1673ffffffffffffffffffffffffffffffffffffffff16630c616cec336040518263ffffffff1660e01b8152600401610906919061228f565b602060405180830381865afa158015610921573d5f803e3d5ffd5b505050506040513d601f19601f82011682018060405250810190610945919061249a565b610984576040517f08c379a000000000000000000000000000000000000000000000000000000000815260040161097b906128bf565b60405180910390fd5b5f8054906101000a900473ffffffffffffffffffffffffffffffffffffffff1673ffffffffffffffffffffffffffffffffffffffff1663110466ed826040518263ffffffff1660e01b81526004016109dc91906128ec565b5f604051808303815f87803b1580156109f3575f80fd5b505af1158015610a05573d5f803e3d5ffd5b5050505050565b610a14611d85565b60045f3373ffffffffffffffffffffffffffffffffffffffff1673ffffffffffffffffffffffffffffffffffffffff1681526020019081526020015f205f015f9054906101000a900460ff16610a9f576040517f08c379a0000000000000000000000000000000000000000000000000000000008152600401610a969061294f565b60405180910390fd5b60045f3373ffffffffffffffffffffffffffffffffffffffff1673ffffffffffffffffffffffffffffffffffffffff1681526020019081526020015f20600101600380602002604051908101604052809291908260038015610b3a576020028201915f905b82829054906101000a900460ff1660ff16815260200190600101906020825f01049283019260010382029150808411610b045790505b5050505050905090565b670de0b6b3a764000081565b5f8054906101000a900473ffffffffffffffffffffffffffffffffffffffff1673ffffffffffffffffffffffffffffffffffffffff1663cd905dff6040518163ffffffff1660e01b8152600401602060405180830381865afa158015610bb8573d5f803e3d5ffd5b505050506040513d601f19601f82011682018060405250810190610bdc919061249a565b610c1b576040517f08c379a0000000000000000000000000000000000000000000000000000000008152600401610c129061251f565b60405180910390fd5b8073ffffffffffffffffffffffffffffffffffffffff163373ffffffffffffffffffffffffffffffffffffffff1614610c89576040517f08c379a0000000000000000000000000000000000000000000000000000000008152600401610c80906129dd565b60405180910390fd5b5f8054906101000a900473ffffffffffffffffffffffffffffffffffffffff1673ffffffffffffffffffffffffffffffffffffffff1663f46baae5826040518263ffffffff1660e01b8152600401610ce1919061228f565b5f604051808303815f87803b158015610cf8575f80fd5b505af1158015610d0a573d5f803e3d5ffd5b5050505050565b5f8054906101000a900473ffffffffffffffffffffffffffffffffffffffff1673ffffffffffffffffffffffffffffffffffffffff1663cd905dff6040518163ffffffff1660e01b8152600401602060405180830381865afa158015610d79573d5f803e3d5ffd5b505050506040513d601f19601f82011682018060405250810190610d9d919061249a565b610ddc576040517f08c379a0000000000000000000000000000000000000000000000000000000008152600401610dd39061251f565b60405180910390fd5b5f8054906101000a900473ffffffffffffffffffffffffffffffffffffffff1673ffffffffffffffffffffffffffffffffffffffff16634a5fc2af336040518263ffffffff1660e01b8152600401610e34919061228f565b602060405180830381865afa158015610e4f573d5f803e3d5ffd5b505050506040513d601f19601f82011682018060405250810190610e73919061249a565b610eb2576040517f08c379a0000000000000000000000000000000000000000000000000000000008152600401610ea990612587565b60405180910390fd5b8073ffffffffffffffffffffffffffffffffffffffff163373ffffffffffffffffffffffffffffffffffffffff1614610f20576040517f08c379a0000000000000000000000000000000000000000000000000000000008152600401610f1790612a6b565b60405180910390fd5b5f8054906101000a900473ffffffffffffffffffffffffffffffffffffffff1673ffffffffffffffffffffffffffffffffffffffff16630c11dedd826040518263ffffffff1660e01b8152600401610f78919061228f565b5f604051808303815f87803b158015610f8f575f80fd5b505af1158015610fa1573d5f803e3d5ffd5b5050505050565b5f8054906101000a900473ffffffffffffffffffffffffffffffffffffffff1673ffffffffffffffffffffffffffffffffffffffff1663cd905dff6040518163ffffffff1660e01b8152600401602060405180830381865afa158015611010573d5f803e3d5ffd5b505050506040513d601f19601f82011682018060405250810190611034919061249a565b611073576040517f08c379a000000000000000000000000000000000000000000000000000000000815260040161106a9061251f565b60405180910390fd5b5f8054906101000a900473ffffffffffffffffffffffffffffffffffffffff1673ffffffffffffffffffffffffffffffffffffffff1663fe81720b336040518263ffffffff1660e01b81526004016110cb919061228f565b602060405180830381865afa1580156110e6573d5f803e3d5ffd5b505050506040513d601f19601f8201168201806040525081019061110a919061249a565b611149576040517f08c379a000000000000000000000000000000000000000000000000000000000815260040161114090612831565b60405180910390fd5b678ac7230489e80000341015611194576040517f08c379a000000000000000000000000000000000000000000000000000000000815260040161118b90612ad3565b60405180910390fd5b5f8054906101000a900473ffffffffffffffffffffffffffffffffffffffff1673ffffffffffffffffffffffffffffffffffffffff16632302440834836040518363ffffffff1660e01b81526004016111ed919061228f565b5f604051808303818588803b158015611204575f80fd5b505af1158015611216573d5f803e3d5ffd5b505050505050565b8460ff1660045f3373ffffffffffffffffffffffffffffffffffffffff1673ffffffffffffffffffffffffffffffffffffffff1681526020019081526020015f206001015f6003811061127457611273612af1565b5b602091828204019190069054906101000a900460ff1660ff16148061130657508460ff1660045f3373ffffffffffffffffffffffffffffffffffffffff1673ffffffffffffffffffffffffffffffffffffffff1681526020019081526020015f206001016001600381106112eb576112ea612af1565b5b602091828204019190069054906101000a900460ff1660ff16145b8061137e57508460ff1660045f3373ffffffffffffffffffffffffffffffffffffffff1673ffffffffffffffffffffffffffffffffffffffff1681526020019081526020015f2060010160026003811061136357611362612af1565b5b602091828204019190069054906101000a900460ff1660ff16145b6113bd576040517f08c379a00000000000000000000000000000000000000000000000000000000081526004016113b490612b8e565b60405180910390fd5b5f858585856040516020016113d59493929190612be6565b60405160208183030381529060405280519060200120905060055f8281526020019081526020015f205f0160149054906101000a900460ff1661144d576040517f08c379a000000000000000000000000000000000000000000000000000000000815260040161144490612c9f565b60405180910390fd5b60055f8281526020019081526020015f206001015f8360ff1660ff1681526020019081526020015f2033908060018154018082558091505060019003905f5260205f20015f9091909190916101000a81548173ffffffffffffffffffffffffffffffffffffffff021916908373ffffffffffffffffffffffffffffffffffffffff1602179055507f43c853095c2752648493c88b4baac4d580d2594ffb00c6f1d4242d844514f783858585856040516115099493929190612ccc565b60405180910390a1600360055f8381526020019081526020015f206001015f8460ff1660ff1681526020019081526020015f20805490501061158f577fe23f5229de535c091e3b7bec2665f5d698192d3b31393066e8987b7a05076b6c8585858560405161157a9493929190612ccc565b60405180910390a161158e85858585611c23565b5b505050505050565b5f60015f9054906101000a900473ffffffffffffffffffffffffffffffffffffffff16905090565b5f8383836040516020016115d593929190612d16565b6040516020818303038152906040528051906020012090509392505050565b5f8054906101000a900473ffffffffffffffffffffffffffffffffffffffff1673ffffffffffffffffffffffffffffffffffffffff1663cd905dff6040518163ffffffff1660e01b8152600401602060405180830381865afa15801561165c573d5f803e3d5ffd5b505050506040513d601f19601f82011682018060405250810190611680919061249a565b6116bf576040517f08c379a00000000000000000000000000000000000000000000000000000000081526004016116b69061251f565b60405180910390fd5b5f8054906101000a900473ffffffffffffffffffffffffffffffffffffffff1673ffffffffffffffffffffffffffffffffffffffff1663fe81720b336040518263ffffffff1660e01b8152600401611717919061228f565b602060405180830381865afa158015611732573d5f803e3d5ffd5b505050506040513d601f19601f82011682018060405250810190611756919061249a565b611795576040517f08c379a000000000000000000000000000000000000000000000000000000000815260040161178c90612831565b60405180910390fd5b5f8054906101000a900473ffffffffffffffffffffffffffffffffffffffff1673ffffffffffffffffffffffffffffffffffffffff16630c616cec336040518263ffffffff1660e01b81526004016117ed919061228f565b602060405180830381865afa158015611808573d5f803e3d5ffd5b505050506040513d601f19601f8201168201806040525081019061182c919061249a565b61186b576040517f08c379a0000000000000000000000000000000000000000000000000000000008152600401611862906128bf565b60405180910390fd5b5f8054906101000a900473ffffffffffffffffffffffffffffffffffffffff1673ffffffffffffffffffffffffffffffffffffffff16638836fa3f8484846040518463ffffffff1660e01b81526004016118c793929190612d4e565b5f604051808303815f87803b1580156118de575f80fd5b505af11580156118f0573d5f803e3d5ffd5b50505050505050565b5f61190333611c29565b90505f8185858560405160200161191d9493929190612be6565b6040516020818303038152906040528051906020012090505f60055f8381526020019081526020015f2090505f73ffffffffffffffffffffffffffffffffffffffff16815f015f9054906101000a900473ffffffffffffffffffffffffffffffffffffffff1673ffffffffffffffffffffffffffffffffffffffff16036119fc5733815f015f6101000a81548173ffffffffffffffffffffffffffffffffffffffff021916908373ffffffffffffffffffffffffffffffffffffffff1602179055506001815f0160146101000a81548160ff0219169083151502179055505b7f3ed01f2c3fc24c6b329d931e35b03e390d23497d22b3f90e15b600343e93df1183878787604051611a319493929190612d8a565b60405180910390a1505050505050565b611a49611d85565b611a51611d85565b611a5a83611c29565b815f60038110611a6d57611a6c612af1565b5b602002019060ff16908160ff1681525050805f60038110611a9157611a90612af1565b5b602002015181600160038110611aaa57611aa9612af1565b5b602002019060ff16908160ff16815250505b805f60038110611acf57611ace612af1565b5b602002015160ff1681600160038110611aeb57611aea612af1565b5b602002015160ff1603611b2b57611b0183611c29565b81600160038110611b1557611b14612af1565b5b602002019060ff16908160ff1681525050611abc565b80600160038110611b3f57611b3e612af1565b5b602002015181600260038110611b5857611b57612af1565b5b602002019060ff16908160ff16815250505b805f60038110611b7d57611b7c612af1565b5b602002015160ff1681600260038110611b9957611b98612af1565b5b602002015160ff161480611be2575080600160038110611bbc57611bbb612af1565b5b602002015160ff1681600260038110611bd857611bd7612af1565b5b602002015160ff16145b15611c1a57611bf083611c29565b81600260038110611c0457611c03612af1565b5b602002019060ff16908160ff1681525050611b6a565b80915050919050565b50505050565b5f80600a90505f8160ff1660035f81819054906101000a900460ff1680929190611c5290612e01565b91906101000a81548160ff021916908360ff16021790555060ff1643611c789190612e29565b4085604051602001611c8b929190612e7c565b604051602081830303815290604052805190602001205f1c611cad9190612ed4565b905060fa60035f9054906101000a900460ff1660ff161115611ce4575f60035f6101000a81548160ff021916908360ff1602179055505b8092505050919050565b826003601f01602090048101928215611d74579160200282015f5b83821115611d4657835183826101000a81548160ff021916908360ff16021790555092602001926001016020815f01049283019260010302611d09565b8015611d725782816101000a81549060ff02191690556001016020815f01049283019260010302611d46565b505b509050611d819190611da7565b5090565b6040518060600160405280600390602082028036833780820191505090505090565b5b80821115611dbe575f815f905550600101611da8565b5090565b5f604051905090565b5f80fd5b5f80fd5b5f60ff82169050919050565b611de881611dd3565b8114611df2575f80fd5b50565b5f81359050611e0381611ddf565b92915050565b5f819050919050565b611e1b81611e09565b8114611e25575f80fd5b50565b5f81359050611e3681611e12565b92915050565b5f73ffffffffffffffffffffffffffffffffffffffff82169050919050565b5f611e6582611e3c565b9050919050565b611e7581611e5b565b8114611e7f575f80fd5b50565b5f81359050611e9081611e6c565b92915050565b5f805f60608486031215611ead57611eac611dcb565b5b5f611eba86828701611df5565b9350506020611ecb86828701611e28565b9250506040611edc86828701611e82565b9150509250925092565b5f80fd5b5f80fd5b5f601f19601f8301169050919050565b7f4e487b71000000000000000000000000000000000000000000000000000000005f52604160045260245ffd5b611f3482611eee565b810181811067ffffffffffffffff82111715611f5357611f52611efe565b5b80604052505050565b5f611f65611dc2565b9050611f718282611f2b565b919050565b5f67ffffffffffffffff821115611f9057611f8f611efe565b5b611f9982611eee565b9050602081019050919050565b828183375f83830152505050565b5f611fc6611fc184611f76565b611f5c565b905082815260208101848484011115611fe257611fe1611eea565b5b611fed848285611fa6565b509392505050565b5f82601f83011261200957612008611ee6565b5b8135612019848260208601611fb4565b91505092915050565b5f806040838503121561203857612037611dcb565b5b5f61204585828601611e82565b925050602083013567ffffffffffffffff81111561206657612065611dcf565b5b61207285828601611ff5565b9150509250929050565b5f8115159050919050565b6120908161207c565b811461209a575f80fd5b50565b5f813590506120ab81612087565b92915050565b5f602082840312156120c6576120c5611dcb565b5b5f6120d38482850161209d565b91505092915050565b5f60039050919050565b5f81905092915050565b5f819050919050565b61210281611dd3565b82525050565b5f61211383836120f9565b60208301905092915050565b5f602082019050919050565b612134816120dc565b61213e81846120e6565b9250612149826120f0565b805f5b838110156121795781516121608782612108565b965061216b8361211f565b92505060018101905061214c565b505050505050565b5f6060820190506121945f83018461212b565b92915050565b6121a381611e09565b82525050565b5f6020820190506121bc5f83018461219a565b92915050565b5f602082840312156121d7576121d6611dcb565b5b5f6121e484828501611e82565b91505092915050565b5f805f805f60a0868803121561220657612205611dcb565b5b5f61221388828901611df5565b955050602061222488828901611e82565b945050604086013567ffffffffffffffff81111561224557612244611dcf565b5b61225188828901611ff5565b935050606061226288828901611e28565b925050608061227388828901611df5565b9150509295509295909350565b61228981611e5b565b82525050565b5f6020820190506122a25f830184612280565b92915050565b5f805f606084860312156122bf576122be611dcb565b5b5f6122cc86828701611e82565b935050602084013567ffffffffffffffff8111156122ed576122ec611dcf565b5b6122f986828701611ff5565b925050604061230a86828701611e28565b9150509250925092565b5f819050919050565b61232681612314565b82525050565b5f60208201905061233f5f83018461231d565b92915050565b5f805f6060848603121561235c5761235b611dcb565b5b5f61236986828701611e28565b935050602061237a86828701611e82565b925050604084013567ffffffffffffffff81111561239b5761239a611dcf565b5b6123a786828701611ff5565b9150509250925092565b5f8160f81b9050919050565b5f6123c7826123b1565b9050919050565b6123df6123da82611dd3565b6123bd565b82525050565b5f8160601b9050919050565b5f6123fb826123e5565b9050919050565b5f61240c826123f1565b9050919050565b61242461241f82611e5b565b612402565b82525050565b5f819050919050565b61244461243f82611e09565b61242a565b82525050565b5f61245582866123ce565b6001820191506124658285612413565b6014820191506124758284612433565b602082019150819050949350505050565b5f8151905061249481612087565b92915050565b5f602082840312156124af576124ae611dcb565b5b5f6124bc84828501612486565b91505092915050565b5f82825260208201905092915050565b7f436f6e7472616374206d757374206265206f7065726174696f6e616c000000005f82015250565b5f612509601c836124c5565b9150612514826124d5565b602082019050919050565b5f6020820190508181035f830152612536816124fd565b9050919050565b7f54686973206d75737420626520612070617373656e67657200000000000000005f82015250565b5f6125716018836124c5565b915061257c8261253d565b602082019050919050565b5f6020820190508181035f83015261259e81612565565b9050919050565b7f4169726c696e6520696e737572616e6365206d757374206265206772656174655f8201527f72207468616e203020616e64206174206d6f7374203120657468000000000000602082015250565b5f6125ff603a836124c5565b915061260a826125a5565b604082019050919050565b5f6020820190508181035f83015261262c816125f3565b9050919050565b7f43616c6c6572206d75737420626520657175616c20746f2070617373656e67655f8201527f722066696c6c656420696e000000000000000000000000000000000000000000602082015250565b5f61268d602b836124c5565b915061269882612633565b604082019050919050565b5f6020820190508181035f8301526126ba81612681565b9050919050565b5f81519050919050565b5f5b838110156126e85780820151818401526020810190506126cd565b5f8484015250505050565b5f6126fd826126c1565b61270781856124c5565b93506127178185602086016126cb565b61272081611eee565b840191505092915050565b5f60408201905061273e5f830185612280565b818103602083015261275081846126f3565b90509392505050565b7f526567697374726174696f6e20666565206973207265717569726564000000005f82015250565b5f61278d601c836124c5565b915061279882612759565b602082019050919050565b5f6020820190508181035f8301526127ba81612781565b9050919050565b7f4f6e6c79206169726c696e65732063616e2063616c6c20746869732066756e635f8201527f74696f6e00000000000000000000000000000000000000000000000000000000602082015250565b5f61281b6024836124c5565b9150612826826127c1565b604082019050919050565b5f6020820190508181035f8301526128488161280f565b9050919050565b7f4169726c696e65206861736e74207061696420746865207265717569726564205f8201527f66656520746f206a6f696e000000000000000000000000000000000000000000602082015250565b5f6128a9602b836124c5565b91506128b48261284f565b604082019050919050565b5f6020820190508181035f8301526128d68161289d565b9050919050565b6128e68161207c565b82525050565b5f6020820190506128ff5f8301846128dd565b92915050565b7f4e6f74207265676973746572656420617320616e206f7261636c6500000000005f82015250565b5f612939601b836124c5565b915061294482612905565b602082019050919050565b5f6020820190508181035f8301526129668161292d565b9050919050565b7f43616c6c6572206d757374206265207468652073616d652061646472657373205f8201527f70617373656420696e0000000000000000000000000000000000000000000000602082015250565b5f6129c76029836124c5565b91506129d28261296d565b604082019050919050565b5f6020820190508181035f8301526129f4816129bb565b9050919050565b7f43616c6c657220697320646966666572656e742066726f6d20746865207061735f8201527f73656e6765722066696c6c656420696e00000000000000000000000000000000602082015250565b5f612a556030836124c5565b9150612a60826129fb565b604082019050919050565b5f6020820190508181035f830152612a8281612a49565b9050919050565b7f496e73756666696369656e742045746865722073656e740000000000000000005f82015250565b5f612abd6017836124c5565b9150612ac882612a89565b602082019050919050565b5f6020820190508181035f830152612aea81612ab1565b9050919050565b7f4e487b71000000000000000000000000000000000000000000000000000000005f52603260045260245ffd5b7f496e64657820646f6573206e6f74206d61746368206f7261636c6520726571755f8201527f6573740000000000000000000000000000000000000000000000000000000000602082015250565b5f612b786023836124c5565b9150612b8382612b1e565b604082019050919050565b5f6020820190508181035f830152612ba581612b6c565b9050919050565b5f81905092915050565b5f612bc0826126c1565b612bca8185612bac565b9350612bda8185602086016126cb565b80840191505092915050565b5f612bf182876123ce565b600182019150612c018286612413565b601482019150612c118285612bb6565b9150612c1d8284612433565b60208201915081905095945050505050565b7f466c69676874206f722074696d657374616d7020646f206e6f74206d617463685f8201527f206f7261636c6520726571756573740000000000000000000000000000000000602082015250565b5f612c89602f836124c5565b9150612c9482612c2f565b604082019050919050565b5f6020820190508181035f830152612cb681612c7d565b9050919050565b612cc681611dd3565b82525050565b5f608082019050612cdf5f830187612280565b8181036020830152612cf181866126f3565b9050612d00604083018561219a565b612d0d6060830184612cbd565b95945050505050565b5f612d218286612413565b601482019150612d318285612bb6565b9150612d3d8284612433565b602082019150819050949350505050565b5f606082019050612d615f83018661219a565b612d6e6020830185612280565b8181036040830152612d8081846126f3565b9050949350505050565b5f608082019050612d9d5f830187612cbd565b612daa6020830186612280565b8181036040830152612dbc81856126f3565b9050612dcb606083018461219a565b95945050505050565b7f4e487b71000000000000000000000000000000000000000000000000000000005f52601160045260245ffd5b5f612e0b82611dd3565b915060ff8203612e1e57612e1d612dd4565b5b600182019050919050565b5f612e3382611e09565b9150612e3e83611e09565b9250828203905081811115612e5657612e55612dd4565b5b92915050565b5f819050919050565b612e76612e7182612314565b612e5c565b82525050565b5f612e878285612e65565b602082019150612e978284612413565b6014820191508190509392505050565b7f4e487b71000000000000000000000000000000000000000000000000000000005f52601260045260245ffd5b5f612ede82611e09565b9150612ee983611e09565b925082612ef957612ef8612ea7565b5b82820690509291505056fea2646970667358221220b7e1357b930c8ccf9e210f9e44ef5b9204ed2bb25e75c2e4717cbd194a5c51b064736f6c63430008140033",
  "immutableReferences": {},
  "source": "// SPDX-License-Identifier: MIT\n// pragma solidity ^0.8.0;\n\n// import \"./FlightSuretyData.sol\";\n\n\n// /************************************************** */\n// /* FlightSurety Smart Contract                      */\n// /************************************************** */\n// contract FlightSuretyApp  {\n//   /********************************************************************************************/\n//   /*                                       DATA VARIABLES                                     */\n//   /********************************************************************************************/\n\n//     IFlightSuretyData public flightSuretyData;\n\n\n   \n//   /**\n//    * @dev Contract constructor\n//    *\n//    */\n//   constructor(address _flightSuretyData)  {\n//     flightSuretyData = IFlightSuretyData(_flightSuretyData);\n//     contractOwner = msg.sender;\n\n   \n//   }\n\n//   event DebugLog(string message);\n\n//   // Flight status codes\n//   uint8 private constant STATUS_CODE_UNKNOWN = 0;\n//   uint8 private constant STATUS_CODE_ON_TIME = 10;\n//   uint8 private constant STATUS_CODE_LATE_AIRLINE = 20;\n//   uint8 private constant STATUS_CODE_LATE_WEATHER = 30;\n//   uint8 private constant STATUS_CODE_LATE_TECHNICAL = 40;\n//   uint8 private constant STATUS_CODE_LATE_OTHER = 50;\n\n//   address private contractOwner; // Account used to deploy contract\n\n//   struct Flight { //a struct Flight, to know the shape of a Flight\n//     bool isRegistered;\n//     uint8 statusCode;\n//     uint256 updatedTimestamp;\n//     address airline;\n//   }\n\n//   //an oracle struct\n//   struct Oracle {\n//     bool isRegistered;\n//     uint8[3] indexes;\n//   }\n\n//   // Model for responses from oracles\n//   struct ResponseInfo {\n//     address requester; // Account that requested status\n//     bool isOpen; // If open, oracle responses are accepted\n//     mapping(uint8 => address[]) responses; // Mapping key is the status code reported\n//     // This lets us group responses and identify\n//     // the response that majority of the oracles\n//   }\n\n//    mapping(bytes32 => Flight) private flights; //a mapping of bytes32 to Flight\n\n   \n\n\n//   // Incremented to add pseudo-randomness at various points\n//   uint8 private nonce = 0;\n\n//   // Fee to be paid when registering oracle\n//   uint256 public constant REGISTRATION_FEE = 1 ether;\n\n//   // Number of oracles that must respond for valid status\n//   uint256 private constant MIN_RESPONSES = 3;\n\n//   // Track all registered oracles\n//   mapping(address => Oracle) private oracles;\n\n//   // Track all oracle responses\n//   // Key = hash(index, flight, timestamp)\n//   mapping(bytes32 => ResponseInfo) private oracleResponses;\n\n//   // Event fired each time an oracle submits a response\n//   event FlightStatusInfo(\n//     address airline,\n//     string flight,\n//     uint256 timestamp,\n//     uint8 status\n//   );\n\n//   event OracleReport(\n//     address airline,\n//     string flight,\n//     uint256 timestamp,\n//     uint8 status\n//   );\n\n//   // Event fired when flight status request is submitted\n//   // Oracles track this and if they have a matching index\n//   // they fetch data and submit a response\n//   event OracleRequest(\n//     uint8 index,\n//     address airline,\n//     string flight,\n//     uint256 timestamp\n//   );\n\n\n//   /********************************************************************************************/\n//   /*                                       FUNCTION MODIFIERS                                 */\n//   /********************************************************************************************/\n\n//   // Modifiers help avoid duplication of code. They are typically used to validate something\n//   // before a function is allowed to be executed.\n\n//   // /**\n//   //  * @dev Modifier that requires the \"operational\" boolean variable to be \"true\"\n//   //  *      This is used on all state changing functions to pause the contract in\n//   //  *      the event there is an issue that needs to be fixed\n//   //  */\n//   // modifier requireIsOperational() {\n//   //   // Modify to call data contract's status\n//   //   require(true, \"Contract is currently not operational\");\n//   //   _; // All modifiers require an \"_\" which indicates where the function body will be added\n//   // }\n\n//   /**\n//    * @dev Modifier that requires the \"ContractOwner\" account to be the function caller\n//    */\n//   modifier requireContractOwner() {\n//     require(msg.sender == contractOwner, \"Caller is not contract owner\");\n//     _;\n//   }\n\n//   modifier onlyExistingAirlines() virtual  {\n//     // Define your onlyAirlines modifier logic here\n//     require(flightSuretyData.isAnAirline(msg.sender), \"Only airlines can call this function\");\n//     _;\n// }\n\n// modifier airlineHasNotVoted(address airline, address voter) virtual  {\n//     require(!flightSuretyData.votedBefore(airline, voter), \"This airline has already voted for the new airline\");\n//     _;\n// }\n\n//     // modifier onlyAirlines() {\n//     //     // Define your onlyAirlines modifier logic here\n//     //     require(flightSuretyData.isAnAirline(msg.sender), \"Only airlines can call this function\");\n//     //     _;\n//     // }\n\n//     // modifier airlineHasNotVoted(address newAirline) {\n//     //     require(flightSuretyData.votedBefore(newAirline), \"This airline has already voted for the new airline\");\n//     //     _;\n//     // }\n\n//   /********************************************************************************************/\n//   /*                                       CONSTRUCTOR                                        */\n//   /********************************************************************************************/\n\n\n\n \n\n//   /********************************************************************************************/\n//   /*                                       UTILITY FUNCTIONS                                  */\n//   /********************************************************************************************/\n\n//   // function isOperational() public view returns (bool) {\n//   //   return flightSuretyData.isOperational(); // Modify to call data contract's status\n//   // }\n\n//   function setOperatingStatus(bool mode) public  requireContractOwner {\n//     flightSuretyData.setOperatingStatus(mode);\n//   }\n\n//   /********************************************************************************************/\n//   /*                                     SMART CONTRACT FUNCTIONS                             */\n//   /********************************************************************************************/\n\n\n\n//   /**\n//    * @dev Add an airline to the registration queue\n//    *\n//    */\n//   function registerAirline(address airline) external onlyExistingAirlines \n//   airlineHasNotVoted(airline, msg.sender)\n//   {\n//     flightSuretyData.registerAirline(airline);\n//   }\n\n//   /**\n//    * @dev Register a future flight for insuring.\n//    *\n//    */\n//   function registerFlight() external pure {}\n\n//   /**\n//    * @dev Called after oracle has updated flight status\n//    *\n//    */\n//   function processFlightStatus(\n//     address airline,\n//     string memory flight,\n//     uint256 timestamp,\n//     uint8 statusCode\n//   ) internal pure {}\n\n//   // Generate a request for oracles to fetch flight information\n//   function fetchFlightStatus(\n//     address airline,\n//     string memory flight,\n//     uint256 timestamp\n//   ) external {\n//     uint8 index = getRandomIndex(msg.sender);\n\n//     // Generate a unique key for storing the request\n//     bytes32 key = keccak256(\n//       abi.encodePacked(index, airline, flight, timestamp)\n//     );\n\n//     // Create a storage variable to store the ResponseInfo struct\n//     ResponseInfo storage responseInfo = oracleResponses[key];\n//     if (responseInfo.requester == address(0)) {\n//         responseInfo.requester = msg.sender;\n//         responseInfo.isOpen = true;\n//     }\n\n//     emit OracleRequest(index, airline, flight, timestamp);\n//   }\n\n\n//   // Register an oracle with the contract\n//   function registerOracle() external payable {\n//     // Require registration fee\n//     require(msg.value >= REGISTRATION_FEE, \"Registration fee is required\");\n\n//     uint8[3] memory indexes = generateIndexes(msg.sender);\n\n//     oracles[msg.sender] = Oracle({isRegistered: true, indexes: indexes});\n//   }\n\n//   function getMyIndexes() external view returns (uint8[3] memory) {\n//     require(oracles[msg.sender].isRegistered, 'Not registered as an oracle');\n\n//     return oracles[msg.sender].indexes;\n//   }\n\n//   // Called by oracle when a response is available to an outstanding request\n//   // For the response to be accepted, there must be a pending request that is open\n//   // and matches one of the three Indexes randomly assigned to the oracle at the\n//   // time of registration (i.e. uninvited oracles are not welcome)\n//   function submitOracleResponse(\n//     uint8 index,\n//     address airline,\n//     string memory flight,\n//     uint256 timestamp,\n//     uint8 statusCode\n//   ) external {\n//     require(\n//       (oracles[msg.sender].indexes[0] == index) ||\n//         (oracles[msg.sender].indexes[1] == index) ||\n//         (oracles[msg.sender].indexes[2] == index),\n//       \"Index does not match oracle request\"\n//     );\n\n//     bytes32 key = keccak256(\n//       abi.encodePacked(index, airline, flight, timestamp)\n//     );\n//     require(\n//       oracleResponses[key].isOpen,\n//       \"Flight or timestamp do not match oracle request\"\n//     );\n\n//     oracleResponses[key].responses[statusCode].push(msg.sender);\n\n//     // Information isn't considered verified until at least MIN_RESPONSES\n//     // oracles respond with the *** same *** information\n//     emit OracleReport(airline, flight, timestamp, statusCode);\n//     if (oracleResponses[key].responses[statusCode].length >= MIN_RESPONSES) {\n//       emit FlightStatusInfo(airline, flight, timestamp, statusCode);\n\n//       // Handle flight status as appropriate\n//       processFlightStatus(airline, flight, timestamp, statusCode);\n//     }\n//   }\n\n//   function getFlightKey(\n//     address airline,\n//     string memory flight,\n//     uint256 timestamp\n//   ) external  pure    returns (bytes32) {\n//     return keccak256(abi.encodePacked(airline, flight, timestamp));\n//   }\n\n//   // Returns array of three non-duplicating integers from 0-9\n//   function generateIndexes(address account) internal returns (uint8[3] memory) {\n//     uint8[3] memory indexes;\n//     indexes[0] = getRandomIndex(account);\n\n//     indexes[1] = indexes[0];\n//     while (indexes[1] == indexes[0]) {\n//       indexes[1] = getRandomIndex(account);\n//     }\n\n//     indexes[2] = indexes[1];\n//     while ((indexes[2] == indexes[0]) || (indexes[2] == indexes[1])) {\n//       indexes[2] = getRandomIndex(account);\n//     }\n\n//     return indexes;\n//   }\n\n//   // Returns array of three non-duplicating integers from 0-9\n//   function getRandomIndex(address account) internal returns (uint8) {\n//     uint8 maxValue = 10;\n\n//     // Pseudo random number...the incrementing nonce adds variation\n//     uint8 random = uint8(\n//       uint256(\n//         keccak256(abi.encodePacked(blockhash(block.number - nonce++), account))\n//       ) % maxValue\n//     );\n\n//     if (nonce > 250) {\n//       nonce = 0; // Can only fetch blockhashes for last 256 blocks so we adapt\n//     }\n\n//     return random;\n//   }\n\n// }\n\n\n\n\n\n/////////end\n\n\n\n\npragma solidity ^0.8.0;\n\nimport \"./FlightSuretyData.sol\";\n\n\n/************************************************** */\n/* FlightSurety Smart Contract                      */\n/************************************************** */\ncontract FlightSuretyApp  {\n\n    IFlightSuretyDataInterface private flightSuretyData;\n\n/********************************************************************************************/\n  /*                                       CONSTRUCTOR                                        */\n  /********************************************************************************************/\n\n\n   \n  /**\n   * @dev Contract constructor\n   */\n  constructor(address _dataContractAddress)  {\n    flightSuretyData = IFlightSuretyDataInterface(_dataContractAddress);\n    contractOwner = msg.sender;\n  }\n\n  \n\n  //  constructor()  {\n  //   contractOwner == msg.sender;\n  // }\n\n  /********************************************************************************************/\n  /*                                       DATA VARIABLES                                     */\n  /********************************************************************************************/\n\n  event DebugLog(string message);\n\n  // Flight status codes\n  uint8 private constant STATUS_CODE_UNKNOWN = 0;\n  uint8 private constant STATUS_CODE_ON_TIME = 10;\n  uint8 private constant STATUS_CODE_LATE_AIRLINE = 20;\n  uint8 private constant STATUS_CODE_LATE_WEATHER = 30;\n  uint8 private constant STATUS_CODE_LATE_TECHNICAL = 40;\n  uint8 private constant STATUS_CODE_LATE_OTHER = 50;\n\n  address private contractOwner; // Account used to deploy contract\n\n  struct Flight { //a struct Flight, to know the shape of a Flight\n    bool isRegistered;\n    uint8 statusCode;\n    uint256 updatedTimestamp;\n    address airline;\n  }\n\n  //an oracle struct\n  struct Oracle {\n    bool isRegistered;\n    uint8[3] indexes; //[9,3,4]\n  }\n\n  // Model for responses from oracles\n  struct ResponseInfo {\n    address requester; // Account that requested status\n    bool isOpen; // If open, oracle responses are accepted\n    mapping(uint8 => address[]) responses; // Mapping key is the status code reported\n    // This lets us group responses and identify\n    // the response that majority of the oracles\n  }\n\n   mapping(bytes32 => Flight) private flights; //a mapping of bytes32 to Flight\n\n   \n\n\n  // Incremented to add pseudo-randomness at various points\n  uint8 private nonce = 0;\n\n  // Fee to be paid when registering oracle\n  uint256 public constant REGISTRATION_FEE = 1 ether;\n\n  // Number of oracles that must respond for valid status\n  uint256 private constant MIN_RESPONSES = 3;\n\n  // Track all registered oracles\n  mapping(address => Oracle) private oracles;\n\n  // Track all oracle responses\n  // Key = hash(index, flight, timestamp)\n  mapping(bytes32 => ResponseInfo) private oracleResponses;\n\n  // Event fired each time an oracle submits a response\n  event FlightStatusInfo(\n    address airline,\n    string flight,\n    uint256 timestamp,\n    uint8 status\n  );\n\n  event OracleReport(\n    address airline,\n    string flight,\n    uint256 timestamp,\n    uint8 status\n  );\n\n  // Event fired when flight status request is submitted\n  // Oracles track this and if they have a matching index\n  // they fetch data and submit a response\n  event OracleRequest(\n    uint8 index,\n    address airline,\n    string flight,\n    uint256 timestamp\n  );\n\n\n  /********************************************************************************************/\n  /*                                       FUNCTION MODIFIERS                                 */\n  /********************************************************************************************/\n\n  // Modifiers help avoid duplication of code. They are typically used to validate something\n  // before a function is allowed to be executed.\n\n  // /**\n  //  * @dev Modifier that requires the \"operational\" boolean variable to be \"true\"\n  //  *      This is used on all state changing functions to pause the contract in\n  //  *      the event there is an issue that needs to be fixed\n  //  */\n  // modifier requireIsOperational() {\n  //   // Modify to call data contract's status\n  //   require(true, \"Contract is currently not operational\");\n  //   _; // All modifiers require an \"_\" which indicates where the function body will be added\n  // }\n\n  /**\n   * @dev Modifier that requires the \"ContractOwner\" account to be the function caller\n   */\n  modifier requireContractOwner() {\n    require(msg.sender == contractOwner, \"Caller is not contract owner\");\n    _;\n  }\n\n  modifier onlyExistingAirlines()   {\n    // Define your onlyAirlines modifier logic here\n    require(flightSuretyData.isAnAirline(msg.sender), \"Only airlines can call this function\");\n    _;\n}\n\nmodifier airlineHasNotVoted(address airline)   {\n    require(flightSuretyData.votedBefore(airline, msg.sender), \"This airline has already voted for the new airline\");\n    _;\n}\n\nmodifier airlineCanParticipate() {\n    require(flightSuretyData.airlineIsableToParticipate(msg.sender), \"Airline hasnt paid the required fee to join\");\n    _;\n}\n\nmodifier isContractOperational() {\n  require(flightSuretyData.isOperational(), \"Contract must be operational\");\n  _;\n}\n\nmodifier shouldBeAPassenger() {\n  require(flightSuretyData.thisIsAPassenger(msg.sender), \"This must be a passenger\");\n  _;\n}\n\n  \n  function setOperatingStatusOfContract(bool mode) public onlyExistingAirlines airlineCanParticipate  {\n    flightSuretyData.setOperatingStatus(mode);\n  }\n\n  //airline can will click this to pa the require 10eth\n  function allowAirlineParticipate(address airline) public payable isContractOperational onlyExistingAirlines {\n    // flightSuretyData.fund(msg.sender);\n    // Ensure that the sent value is at least 10 ETH\n    require(msg.value >= 10 ether, \"Insufficient Ether sent\");\n    // Call the fund function in the data contract\n    flightSuretyData.fund{value: msg.value}(airline);\n  }\n\n  function createPassengers (address passenger) public isContractOperational {\n    require(msg.sender == passenger, \"Caller must be the same address passed in\");\n    flightSuretyData.createPassenger(passenger);\n  }\n\n  function buyInsurance (address passenger, string memory flightName) public payable  isContractOperational shouldBeAPassenger {\n    require(msg.value > 0 && msg.value <= 1 ether, \"Airline insurance must be greater than 0 and at most 1 eth\"); //ensure that the amount tendered is less than 1eth\n    require(msg.sender == passenger, \"Caller must be equal to passenger filled in\");\n\n   // Call the buy function in the data contract with the required parameters\n    flightSuretyData.buy{value: msg.value}(passenger, flightName);\n  }\n\n  // this would be called by the backend if the status code is 20 i.e passengers flight status is cancelled\n  function creditPassengersWallet(uint statusCode, address passenger, string memory flightName)  public isContractOperational onlyExistingAirlines airlineCanParticipate {\n    flightSuretyData.creditInsurees(statusCode, passenger, flightName);\n  }\n\n  //passengers can withdraw what is in their wallet.\n  function withdrawFromWallet(address  passenger) public payable  isContractOperational shouldBeAPassenger {\n    require(msg.sender == passenger, \"Caller is different from the passenger filled in\");\n    flightSuretyData.pay(passenger);\n  }\n\n  function getcontractOwner () public view returns (address owner)  {\n    return contractOwner;\n  }\n\n  /********************************************************************************************/\n  /*                                     SMART CONTRACT FUNCTIONS                             */\n  /********************************************************************************************/\n\n\n\n  /**\n   * @dev Add an airline to the registration queue\n   *\n   */\n  // function registerAnAirline(address airline) public  isContractOperational onlyExistingAirlines airlineHasNotVoted(airline){\n  //   flightSuretyData.registerAirline(airline);\n  // }\n\n  /**\n   * @dev Register a future flight for insuring.\n   * passengers can run this\n   */ //user will register a flight, in the ui, you can picked from a list or available flights etc\n   //passenger can register flight, firstly with a statuscode of unknown 0\n  function registerFlight(uint8 code, uint timestamp, address airline) external {\n\n     bytes32 key = keccak256(abi.encodePacked(code, airline, timestamp));\n\n    Flight memory newFlight = Flight({\n      isRegistered: true,\n      statusCode: code,\n      updatedTimestamp: timestamp,\n      airline: airline\n    });\n\n    flights[key] = newFlight;\n  }\n\n  /**\n   * @dev Called after oracle has updated flight status\n   *\n   */ //after the oracle returns with a result this is called, so after i run a fetch and return a status code randomly, I will call the function, if the status code is 20, I can initiate a payout to the passenger\n   //so we look for passengers that have purchased insurance for this particular flight and see how much they paid and give them 1.5 x what they paid for the insurance\n   //this will be called from the backend\n  function processFlightStatus(\n    address airline,\n    string memory flight,\n    uint256 timestamp,\n    uint8 statusCode\n  ) internal pure {\n    //call the function you defined in the DataContract here\n    // creditInsurees(uint statusCode, address passenger, string memory flightName)\n    \n  }\n\n\n  // Generate a request for oracles to fetch flight information\n  //this is a function that will be triggered from the ui and it will generate the event that will then be picked up by the oracles and then respond to them\n  function fetchFlightStatus(address airline,string memory flight,uint256 timestamp) external {\n    uint8 index = getRandomIndex(msg.sender);\n\n    // Generate a unique key for storing the request\n    bytes32 key = keccak256(\n      abi.encodePacked(index, airline, flight, timestamp)\n    );\n\n    // Create a storage variable to store the ResponseInfo struct\n    ResponseInfo storage responseInfo = oracleResponses[key];\n    if (responseInfo.requester == address(0)) {\n        responseInfo.requester = msg.sender;\n        responseInfo.isOpen = true;\n    }\n\n    // just check for an OracleRequest in the backend, when you see this, respond to it with the available status codes\n    emit OracleRequest(index, airline, flight, timestamp); //getting an oracle request \n  }\n\n\n  // Register an oracle with the contract\n  function registerOracle() external payable {\n    // Require registration fee\n    require(msg.value >= REGISTRATION_FEE, \"Registration fee is required\");\n\n    uint8[3] memory indexes = generateIndexes(msg.sender);\n\n    oracles[msg.sender] = Oracle({isRegistered: true, indexes: indexes});\n  }\n\n  function getMyIndexes() external view returns (uint8[3] memory) {\n    require(oracles[msg.sender].isRegistered, \"Not registered as an oracle\");\n    return oracles[msg.sender].indexes;\n  }\n\n  // Called by oracle when a response is available to an outstanding request\n  // For the response to be accepted, there must be a pending request that is open\n  // and matches one of the three Indexes randomly assigned to the oracle at the\n  // time of registration (i.e. uninvited oracles are not welcome)\n  function submitOracleResponse(uint8 index,address airline,string memory flight,uint256 timestamp,uint8 statusCode) external {\n    require(\n      (oracles[msg.sender].indexes[0] == index) ||\n        (oracles[msg.sender].indexes[1] == index) ||\n        (oracles[msg.sender].indexes[2] == index),\n      \"Index does not match oracle request\"\n    ); //check to see if the index passed in matches either index in the oracle struct, if it doesnt return. an array\n\n    bytes32 key = keccak256(abi.encodePacked(index, airline, flight, timestamp)); //create a key\n    require(oracleResponses[key].isOpen,\"Flight or timestamp do not match oracle request\");\n\n    oracleResponses[key].responses[statusCode].push(msg.sender);\n\n    // Information isn't considered verified until at least MIN_RESPONSES\n    // oracles respond with the *** same *** information\n    emit OracleReport(airline, flight, timestamp, statusCode);\n    if (oracleResponses[key].responses[statusCode].length >= MIN_RESPONSES) {\n      emit FlightStatusInfo(airline, flight, timestamp, statusCode);\n\n      // Handle flight status as appropriate\n      processFlightStatus(airline, flight, timestamp, statusCode);\n    }\n  }\n\n  function getFlightKey(address airline,string memory flight,uint256 timestamp) external  pure    returns (bytes32) {\n    return keccak256(abi.encodePacked(airline, flight, timestamp));\n  }\n\n  // Returns array of three non-duplicating integers from 0-9\n  function generateIndexes(address account) internal   returns (uint8[3] memory) {\n    uint8[3] memory indexes;\n    indexes[0] = getRandomIndex(account); //get first item in array\n\n    indexes[1] = indexes[0]; //set second item to first\n    while (indexes[1] == indexes[0]) { //loop, that while second item equals first \n      indexes[1] = getRandomIndex(account); //set another value for second item\n    }\n\n    indexes[2] = indexes[1]; //set third item to second item\n    while ((indexes[2] == indexes[0]) || (indexes[2] == indexes[1])) { //loop and say, while third item equals first item or third item equals second item\n      indexes[2] = getRandomIndex(account); //change third item to another one\n    }\n\n    return indexes;  //making sure they are different values\n  }\n\n  // Returns a single integers from 0-9 randomly\n  function getRandomIndex(address account) internal returns (uint8) {\n    uint8 maxValue = 10;\n\n    // Pseudo random number...the incrementing nonce adds variation\n    uint8 random = uint8(uint256(keccak256(abi.encodePacked(blockhash(block.number - nonce++), account))) % maxValue);\n\n    if (nonce > 250) {\n      nonce = 0; // Can only fetch blockhashes for last 256 blocks so we adapt\n    }\n\n    return random;\n  }\n\n}\n",
  "sourcePath": "/Users/femi/Github/udacity-Blockchain/FlightSurety/frontend/src/truffle/contracts/FlightSuretyApp.sol",
  "compiler": {
    "name": "solc",
    "version": "0.8.20+commit.a1b79de6.Emscripten.clang"
  },
  "schemaVersion": "3.4.3",
  "updatedAt": "2024-02-05T14:43:14.935Z",
  "networkType": "ethereum",
  "devdoc": {
    "kind": "dev",
    "methods": {
      "constructor": {
        "details": "Contract constructor"
      },
      "registerFlight(uint8,uint256,address)": {
        "details": "Register a future flight for insuring. passengers can run this"
      }
    },
    "version": 1
  },
  "userdoc": {
    "kind": "user",
    "methods": {},
    "version": 1
  }
}