{
  "contractName": "FlightSuretyData",
  "abi": [
    {
      "inputs": [],
      "stateMutability": "payable",
      "type": "constructor",
      "payable": true
    },
    {
      "anonymous": false,
      "inputs": [
        {
          "indexed": false,
          "internalType": "address",
          "name": "airline",
          "type": "address"
        }
      ],
      "name": "AirlineCanParticipate",
      "type": "event"
    },
    {
      "anonymous": false,
      "inputs": [
        {
          "indexed": false,
          "internalType": "address",
          "name": "newAirline",
          "type": "address"
        }
      ],
      "name": "AirlineRegistered",
      "type": "event"
    },
    {
      "anonymous": false,
      "inputs": [
        {
          "indexed": false,
          "internalType": "address",
          "name": "passenger",
          "type": "address"
        },
        {
          "indexed": false,
          "internalType": "string",
          "name": "flightName",
          "type": "string"
        }
      ],
      "name": "InsurancePurchased",
      "type": "event"
    },
    {
      "anonymous": false,
      "inputs": [
        {
          "indexed": false,
          "internalType": "address",
          "name": "airline",
          "type": "address"
        },
        {
          "indexed": false,
          "internalType": "string",
          "name": "message",
          "type": "string"
        }
      ],
      "name": "OpearationalStatusVoteRecorded",
      "type": "event"
    },
    {
      "anonymous": false,
      "inputs": [],
      "name": "OperationalStatusChanged",
      "type": "event"
    },
    {
      "anonymous": false,
      "inputs": [
        {
          "indexed": false,
          "internalType": "address",
          "name": "newPassenger",
          "type": "address"
        }
      ],
      "name": "PassengerCreated",
      "type": "event"
    },
    {
      "anonymous": false,
      "inputs": [
        {
          "indexed": false,
          "internalType": "address",
          "name": "passenger",
          "type": "address"
        },
        {
          "indexed": false,
          "internalType": "string",
          "name": "flightName",
          "type": "string"
        },
        {
          "indexed": false,
          "internalType": "string",
          "name": "message",
          "type": "string"
        }
      ],
      "name": "PassengerWalletCredited",
      "type": "event"
    },
    {
      "anonymous": false,
      "inputs": [
        {
          "indexed": false,
          "internalType": "address",
          "name": "passenger",
          "type": "address"
        }
      ],
      "name": "PayoutSuccessful",
      "type": "event"
    },
    {
      "anonymous": false,
      "inputs": [],
      "name": "ResetStatusOfVotersToZero",
      "type": "event"
    },
    {
      "anonymous": false,
      "inputs": [
        {
          "indexed": false,
          "internalType": "address",
          "name": "voter",
          "type": "address"
        },
        {
          "indexed": false,
          "internalType": "address",
          "name": "votee",
          "type": "address"
        },
        {
          "indexed": false,
          "internalType": "string",
          "name": "message",
          "type": "string"
        }
      ],
      "name": "VoteRecorded",
      "type": "event"
    },
    {
      "inputs": [
        {
          "internalType": "uint256",
          "name": "",
          "type": "uint256"
        }
      ],
      "name": "airlineAbleToParticipate",
      "outputs": [
        {
          "internalType": "address",
          "name": "",
          "type": "address"
        }
      ],
      "stateMutability": "view",
      "type": "function",
      "constant": true
    },
    {
      "inputs": [
        {
          "internalType": "uint256",
          "name": "",
          "type": "uint256"
        }
      ],
      "name": "airlineThatHaveVotedForContractStatusChange",
      "outputs": [
        {
          "internalType": "address",
          "name": "",
          "type": "address"
        }
      ],
      "stateMutability": "view",
      "type": "function",
      "constant": true
    },
    {
      "inputs": [],
      "name": "airlineregFee",
      "outputs": [
        {
          "internalType": "uint256",
          "name": "",
          "type": "uint256"
        }
      ],
      "stateMutability": "view",
      "type": "function",
      "constant": true
    },
    {
      "inputs": [
        {
          "internalType": "address",
          "name": "",
          "type": "address"
        }
      ],
      "name": "airlines",
      "outputs": [
        {
          "internalType": "bool",
          "name": "registered",
          "type": "bool"
        },
        {
          "internalType": "uint256",
          "name": "voteCount",
          "type": "uint256"
        },
        {
          "internalType": "bool",
          "name": "ableToParticipate",
          "type": "bool"
        }
      ],
      "stateMutability": "view",
      "type": "function",
      "constant": true
    },
    {
      "inputs": [
        {
          "internalType": "uint256",
          "name": "",
          "type": "uint256"
        }
      ],
      "name": "allAirlines",
      "outputs": [
        {
          "internalType": "address",
          "name": "",
          "type": "address"
        }
      ],
      "stateMutability": "view",
      "type": "function",
      "constant": true
    },
    {
      "inputs": [
        {
          "internalType": "uint256",
          "name": "",
          "type": "uint256"
        }
      ],
      "name": "allPassengers",
      "outputs": [
        {
          "internalType": "address",
          "name": "",
          "type": "address"
        }
      ],
      "stateMutability": "view",
      "type": "function",
      "constant": true
    },
    {
      "inputs": [],
      "name": "operational",
      "outputs": [
        {
          "internalType": "bool",
          "name": "",
          "type": "bool"
        }
      ],
      "stateMutability": "view",
      "type": "function",
      "constant": true
    },
    {
      "inputs": [
        {
          "internalType": "address",
          "name": "",
          "type": "address"
        }
      ],
      "name": "passengers",
      "outputs": [
        {
          "internalType": "bool",
          "name": "isPassenger",
          "type": "bool"
        },
        {
          "internalType": "uint256",
          "name": "wallet",
          "type": "uint256"
        },
        {
          "internalType": "address payable",
          "name": "owner",
          "type": "address"
        }
      ],
      "stateMutability": "view",
      "type": "function",
      "constant": true
    },
    {
      "inputs": [],
      "name": "totalAirlines",
      "outputs": [
        {
          "internalType": "uint256",
          "name": "",
          "type": "uint256"
        }
      ],
      "stateMutability": "view",
      "type": "function",
      "constant": true
    },
    {
      "inputs": [],
      "name": "totalAirlinesAbleToParticipate",
      "outputs": [
        {
          "internalType": "uint256",
          "name": "",
          "type": "uint256"
        }
      ],
      "stateMutability": "view",
      "type": "function",
      "constant": true
    },
    {
      "inputs": [],
      "name": "totalPassengers",
      "outputs": [
        {
          "internalType": "uint256",
          "name": "",
          "type": "uint256"
        }
      ],
      "stateMutability": "view",
      "type": "function",
      "constant": true
    },
    {
      "stateMutability": "payable",
      "type": "receive",
      "payable": true
    },
    {
      "inputs": [
        {
          "internalType": "address",
          "name": "newAirline",
          "type": "address"
        }
      ],
      "name": "registerAirline",
      "outputs": [],
      "stateMutability": "nonpayable",
      "type": "function"
    },
    {
      "inputs": [],
      "name": "isOperational",
      "outputs": [
        {
          "internalType": "bool",
          "name": "",
          "type": "bool"
        }
      ],
      "stateMutability": "view",
      "type": "function",
      "constant": true
    },
    {
      "inputs": [
        {
          "internalType": "bool",
          "name": "mode",
          "type": "bool"
        }
      ],
      "name": "setOperatingStatus",
      "outputs": [],
      "stateMutability": "nonpayable",
      "type": "function"
    },
    {
      "inputs": [
        {
          "internalType": "address",
          "name": "airline",
          "type": "address"
        }
      ],
      "name": "isAnAirline",
      "outputs": [
        {
          "internalType": "bool",
          "name": "",
          "type": "bool"
        }
      ],
      "stateMutability": "view",
      "type": "function",
      "constant": true
    },
    {
      "inputs": [
        {
          "internalType": "address",
          "name": "passenger",
          "type": "address"
        }
      ],
      "name": "thisIsAPassenger",
      "outputs": [
        {
          "internalType": "bool",
          "name": "",
          "type": "bool"
        }
      ],
      "stateMutability": "view",
      "type": "function",
      "constant": true
    },
    {
      "inputs": [
        {
          "internalType": "address",
          "name": "airline",
          "type": "address"
        },
        {
          "internalType": "address",
          "name": "voter",
          "type": "address"
        }
      ],
      "name": "votedBefore",
      "outputs": [
        {
          "internalType": "bool",
          "name": "",
          "type": "bool"
        }
      ],
      "stateMutability": "view",
      "type": "function",
      "constant": true
    },
    {
      "inputs": [
        {
          "internalType": "address",
          "name": "airline",
          "type": "address"
        }
      ],
      "name": "airlineIsableToParticipate",
      "outputs": [
        {
          "internalType": "bool",
          "name": "",
          "type": "bool"
        }
      ],
      "stateMutability": "view",
      "type": "function",
      "constant": true
    },
    {
      "inputs": [
        {
          "internalType": "address",
          "name": "passenger",
          "type": "address"
        }
      ],
      "name": "createPassenger",
      "outputs": [],
      "stateMutability": "nonpayable",
      "type": "function"
    },
    {
      "inputs": [
        {
          "internalType": "address",
          "name": "passenger",
          "type": "address"
        },
        {
          "internalType": "string",
          "name": "flightName",
          "type": "string"
        }
      ],
      "name": "buy",
      "outputs": [],
      "stateMutability": "payable",
      "type": "function",
      "payable": true
    },
    {
      "inputs": [
        {
          "internalType": "uint256",
          "name": "statusCode",
          "type": "uint256"
        },
        {
          "internalType": "address",
          "name": "passenger",
          "type": "address"
        },
        {
          "internalType": "string",
          "name": "flightName",
          "type": "string"
        }
      ],
      "name": "creditInsurees",
      "outputs": [],
      "stateMutability": "nonpayable",
      "type": "function"
    },
    {
      "inputs": [
        {
          "internalType": "address",
          "name": "passenger",
          "type": "address"
        }
      ],
      "name": "pay",
      "outputs": [],
      "stateMutability": "payable",
      "type": "function",
      "payable": true
    },
    {
      "inputs": [
        {
          "internalType": "address",
          "name": "airline",
          "type": "address"
        }
      ],
      "name": "fund",
      "outputs": [],
      "stateMutability": "payable",
      "type": "function",
      "payable": true
    },
    {
      "inputs": [
        {
          "internalType": "address",
          "name": "airline",
          "type": "address"
        },
        {
          "internalType": "string",
          "name": "flight",
          "type": "string"
        },
        {
          "internalType": "uint256",
          "name": "timestamp",
          "type": "uint256"
        }
      ],
      "name": "getFlightKey",
      "outputs": [
        {
          "internalType": "bytes32",
          "name": "",
          "type": "bytes32"
        }
      ],
      "stateMutability": "pure",
      "type": "function",
      "constant": true
    }
  ],
  "bytecode": "0x608060405260015f60146101000a81548160ff021916908315150217905550678ac7230489e80000600155335f806101000a81548173ffffffffffffffffffffffffffffffffffffffff021916908373ffffffffffffffffffffffffffffffffffffffff160217905550600160025f3373ffffffffffffffffffffffffffffffffffffffff1673ffffffffffffffffffffffffffffffffffffffff1681526020019081526020015f205f015f6101000a81548160ff021916908315150217905550600733908060018154018082558091505060019003905f5260205f20015f9091909190916101000a81548173ffffffffffffffffffffffffffffffffffffffff021916908373ffffffffffffffffffffffffffffffffffffffff16021790555060045f8154809291906200013490620001ae565b91905055507f89a6354fb229eda6cbc28306798727b4d524818d2c375220bc3f360f24cffaca336040516200016a91906200023d565b60405180910390a162000258565b7f4e487b71000000000000000000000000000000000000000000000000000000005f52601160045260245ffd5b5f819050919050565b5f620001ba82620001a5565b91507fffffffffffffffffffffffffffffffffffffffffffffffffffffffffffffffff8203620001ef57620001ee62000178565b5b600182019050919050565b5f73ffffffffffffffffffffffffffffffffffffffff82169050919050565b5f6200022582620001fa565b9050919050565b620002378162000219565b82525050565b5f602082019050620002525f8301846200022c565b92915050565b612f1b80620002665f395ff3fe60806040526004361061014e575f3560e01c80638836fa3f116100b5578063cd905dff1161006e578063cd905dff1461073b578063ce164fdd14610765578063dfc0dff0146107a3578063f46baae5146107df578063fb3b4d9414610807578063fe81720b14610843576103f3565b80638836fa3f14610631578063ab24708614610659578063b743b46614610683578063b972a472146106bf578063bb4e850b146106e9578063bdfd987714610713576103f3565b8063416847691161010757806341684769146104e75780634a5fc2af146105255780635d471b7f14610561578063677620941461059d5780637edc0573146105d95780638345183814610615576103f3565b80630a401086146103f75780630c11dedd146104215780630c616cec1461043d578063110466ed1461047957806323024408146104a157806341264147146104bd576103f3565b366103f3575f60149054906101000a900460ff166101a1576040517f08c379a000000000000000000000000000000000000000000000000000000000815260040161019890611ddf565b60405180910390fd5b6001543410156101e6576040517f08c379a00000000000000000000000000000000000000000000000000000000081526004016101dd90611e47565b60405180910390fd5b600160025f3373ffffffffffffffffffffffffffffffffffffffff1673ffffffffffffffffffffffffffffffffffffffff1681526020019081526020015f205f015f6101000a81548160ff021916908315150217905550600160025f3373ffffffffffffffffffffffffffffffffffffffff1673ffffffffffffffffffffffffffffffffffffffff1681526020019081526020015f206003015f6101000a81548160ff021916908315150217905550600733908060018154018082558091505060019003905f5260205f20015f9091909190916101000a81548173ffffffffffffffffffffffffffffffffffffffff021916908373ffffffffffffffffffffffffffffffffffffffff160217905550600933908060018154018082558091505060019003905f5260205f20015f9091909190916101000a81548173ffffffffffffffffffffffffffffffffffffffff021916908373ffffffffffffffffffffffffffffffffffffffff16021790555060045f81548092919061036790611e9b565b919050555060055f81548092919061037e90611e9b565b91905055507f89a6354fb229eda6cbc28306798727b4d524818d2c375220bc3f360f24cffaca336040516103b29190611f21565b60405180910390a17f210b424b6b6793c3b7623fc46fbc3650085b7b3f50810b8f89c70e3b496cecbd336040516103e99190611f21565b60405180910390a1005b5f80fd5b348015610402575f80fd5b5061040b61087f565b6040516104189190611f54565b60405180910390f35b61043b60048036038101906104369190611fa8565b610891565b005b348015610448575f80fd5b50610463600480360381019061045e9190611fa8565b610a48565b6040516104709190611f54565b60405180910390f35b348015610484575f80fd5b5061049f600480360381019061049a9190611ffd565b610a9d565b005b6104bb60048036038101906104b69190611fa8565b610d35565b005b3480156104c8575f80fd5b506104d1610f74565b6040516104de9190612037565b60405180910390f35b3480156104f2575f80fd5b5061050d60048036038101906105089190611fa8565b610f7a565b60405161051c93929190612050565b60405180910390f35b348015610530575f80fd5b5061054b60048036038101906105469190611fa8565b610fb8565b6040516105589190611f54565b60405180910390f35b34801561056c575f80fd5b50610587600480360381019061058291906120af565b61100c565b6040516105949190611f21565b60405180910390f35b3480156105a8575f80fd5b506105c360048036038101906105be91906120af565b611047565b6040516105d09190611f21565b60405180910390f35b3480156105e4575f80fd5b506105ff60048036038101906105fa91906120af565b611082565b60405161060c9190611f21565b60405180910390f35b61062f600480360381019061062a9190612216565b6110bd565b005b34801561063c575f80fd5b5061065760048036038101906106529190612270565b6111f8565b005b348015610664575f80fd5b5061066d611307565b60405161067a9190612037565b60405180910390f35b34801561068e575f80fd5b506106a960048036038101906106a491906120af565b61130d565b6040516106b69190611f21565b60405180910390f35b3480156106ca575f80fd5b506106d3611348565b6040516106e09190612037565b60405180910390f35b3480156106f4575f80fd5b506106fd61134e565b60405161070a9190612037565b60405180910390f35b34801561071e575f80fd5b5061073960048036038101906107349190611fa8565b611354565b005b348015610746575f80fd5b5061074f611916565b60405161075c9190611f54565b60405180910390f35b348015610770575f80fd5b5061078b60048036038101906107869190611fa8565b61192b565b60405161079a939291906122fc565b60405180910390f35b3480156107ae575f80fd5b506107c960048036038101906107c49190612331565b61197c565b6040516107d691906123b5565b60405180910390f35b3480156107ea575f80fd5b5061080560048036038101906108009190611fa8565b6119b1565b005b348015610812575f80fd5b5061082d600480360381019061082891906123ce565b611baf565b60405161083a9190611f54565b60405180910390f35b34801561084e575f80fd5b5061086960048036038101906108649190611fa8565b611c40565b6040516108769190611f54565b60405180910390f35b5f60149054906101000a900460ff1681565b5f60035f8373ffffffffffffffffffffffffffffffffffffffff1673ffffffffffffffffffffffffffffffffffffffff1681526020019081526020015f206001015490505f8111610917576040517f08c379a000000000000000000000000000000000000000000000000000000000815260040161090e90612456565b60405180910390fd5b5f811115610a44575f60035f8473ffffffffffffffffffffffffffffffffffffffff1673ffffffffffffffffffffffffffffffffffffffff1681526020019081526020015f206002015f9054906101000a900473ffffffffffffffffffffffffffffffffffffffff1690505f60035f8573ffffffffffffffffffffffffffffffffffffffff1673ffffffffffffffffffffffffffffffffffffffff1681526020019081526020015f20600101819055508073ffffffffffffffffffffffffffffffffffffffff166108fc8390811502906040515f60405180830381858888f19350505050158015610a0a573d5f803e3d5ffd5b507fb958c88ffb75f5ab0831d3b481a6aa7ff3697cecb804b892accb050bc4cfd13483604051610a3a9190611f21565b60405180910390a1505b5050565b5f60025f8373ffffffffffffffffffffffffffffffffffffffff1673ffffffffffffffffffffffffffffffffffffffff1681526020019081526020015f206003015f9054906101000a900460ff169050919050565b5f60149054906101000a900460ff16151581151503610af1576040517f08c379a0000000000000000000000000000000000000000000000000000000008152600401610ae8906124e4565b60405180910390fd5b60026005541015610b37576040517f08c379a0000000000000000000000000000000000000000000000000000000008152600401610b2e90612598565b60405180910390fd5b5f805b600a80549050811015610bd1573373ffffffffffffffffffffffffffffffffffffffff16600a8281548110610b7257610b716125b6565b5b905f5260205f20015f9054906101000a900473ffffffffffffffffffffffffffffffffffffffff1673ffffffffffffffffffffffffffffffffffffffff1603610bbe5760019150610bd1565b8080610bc990611e9b565b915050610b3a565b508015610c13576040517f08c379a0000000000000000000000000000000000000000000000000000000008152600401610c0a9061262d565b60405180910390fd5b600a33908060018154018082558091505060019003905f5260205f20015f9091909190916101000a81548173ffffffffffffffffffffffffffffffffffffffff021916908373ffffffffffffffffffffffffffffffffffffffff1602179055507f3c0da124d76c563ccd6ee0ec984fa8c62efbaa7637346398980c895a5bd404b833604051610ca291906126e1565b60405180910390a1610cb2611c94565b15610d3157815f60146101000a81548160ff0219169083151502179055507f041e316899ae89b3d407f4a6d8c746aee4fecfc437b95680563eb01f88c1534560405160405180910390a1610d04611cb1565b7f3daa8ca03c1b3579793fe39cb01eaa8efd4adaf58a85d7e86417041138d420b460405160405180910390a15b5050565b5f151560025f8373ffffffffffffffffffffffffffffffffffffffff1673ffffffffffffffffffffffffffffffffffffffff1681526020019081526020015f206003015f9054906101000a900460ff16151514610dc7576040517f08c379a0000000000000000000000000000000000000000000000000000000008152600401610dbe9061277d565b60405180910390fd5b600154341015610e0c576040517f08c379a0000000000000000000000000000000000000000000000000000000008152600401610e0390611e47565b60405180910390fd5b5f60015434610e1b919061279b565b90505f811115610e6a578173ffffffffffffffffffffffffffffffffffffffff166108fc8290811502906040515f60405180830381858888f19350505050158015610e68573d5f803e3d5ffd5b505b600160025f8473ffffffffffffffffffffffffffffffffffffffff1673ffffffffffffffffffffffffffffffffffffffff1681526020019081526020015f206003015f6101000a81548160ff02191690831515021790555060055f815480929190610ed490611e9b565b9190505550600982908060018154018082558091505060019003905f5260205f20015f9091909190916101000a81548173ffffffffffffffffffffffffffffffffffffffff021916908373ffffffffffffffffffffffffffffffffffffffff1602179055507f210b424b6b6793c3b7623fc46fbc3650085b7b3f50810b8f89c70e3b496cecbd82604051610f689190611f21565b60405180910390a15050565b60045481565b6002602052805f5260405f205f91509050805f015f9054906101000a900460ff1690806001015490806003015f9054906101000a900460ff16905083565b5f60035f8373ffffffffffffffffffffffffffffffffffffffff1673ffffffffffffffffffffffffffffffffffffffff1681526020019081526020015f205f015f9054906101000a900460ff169050919050565b6008818154811061101b575f80fd5b905f5260205f20015f915054906101000a900473ffffffffffffffffffffffffffffffffffffffff1681565b60098181548110611056575f80fd5b905f5260205f20015f915054906101000a900473ffffffffffffffffffffffffffffffffffffffff1681565b600a8181548110611091575f80fd5b905f5260205f20015f915054906101000a900473ffffffffffffffffffffffffffffffffffffffff1681565b5f341180156110d45750670de0b6b3a76400003411155b611113576040517f08c379a000000000000000000000000000000000000000000000000000000000815260040161110a9061283e565b60405180910390fd5b5f60035f8473ffffffffffffffffffffffffffffffffffffffff1673ffffffffffffffffffffffffffffffffffffffff1681526020019081526020015f20905082816002015f6101000a81548173ffffffffffffffffffffffffffffffffffffffff021916908373ffffffffffffffffffffffffffffffffffffffff1602179055503481600301836040516111a891906128c8565b9081526020016040518091039020819055507f06024b179a611b69c0061396dd543a9cff4da0c42164401b6677133b45c788f683836040516111eb929190612916565b60405180910390a1505050565b601460ff16831461123e576040517f08c379a0000000000000000000000000000000000000000000000000000000008152600401611235906129b4565b60405180910390fd5b601460ff168303611302575f6112548383611cc0565b9050606460968261126591906129d2565b61126f9190612a40565b90508060035f8573ffffffffffffffffffffffffffffffffffffffff1673ffffffffffffffffffffffffffffffffffffffff1681526020019081526020015f206001015f8282546112c09190612a70565b925050819055507fe38adb494bee368694fdd77988e124ff45f588bbbf109cca8244b0728aafbaef83836040516112f8929190612b13565b60405180910390a1505b505050565b60015481565b6007818154811061131c575f80fd5b905f5260205f20015f915054906101000a900473ffffffffffffffffffffffffffffffffffffffff1681565b60055481565b60065481565b5f60149054906101000a900460ff166113a2576040517f08c379a000000000000000000000000000000000000000000000000000000000815260040161139990611ddf565b60405180910390fd5b60025f3373ffffffffffffffffffffffffffffffffffffffff1673ffffffffffffffffffffffffffffffffffffffff1681526020019081526020015f205f015f9054906101000a900460ff1661142d576040517f08c379a000000000000000000000000000000000000000000000000000000000815260040161142490612bc4565b60405180910390fd5b8060025f8273ffffffffffffffffffffffffffffffffffffffff1673ffffffffffffffffffffffffffffffffffffffff1681526020019081526020015f206002015f3373ffffffffffffffffffffffffffffffffffffffff1673ffffffffffffffffffffffffffffffffffffffff1681526020019081526020015f205f9054906101000a900460ff16156114f6576040517f08c379a00000000000000000000000000000000000000000000000000000000081526004016114ed90612c2c565b60405180910390fd5b60025f8373ffffffffffffffffffffffffffffffffffffffff1673ffffffffffffffffffffffffffffffffffffffff1681526020019081526020015f205f015f9054906101000a900460ff1615611582576040517f08c379a000000000000000000000000000000000000000000000000000000000815260040161157990612cba565b60405180910390fd5b60048054101561169657600160025f8473ffffffffffffffffffffffffffffffffffffffff1673ffffffffffffffffffffffffffffffffffffffff1681526020019081526020015f205f015f6101000a81548160ff02191690831515021790555060045f8154809291906115f590611e9b565b9190505550600782908060018154018082558091505060019003905f5260205f20015f9091909190916101000a81548173ffffffffffffffffffffffffffffffffffffffff021916908373ffffffffffffffffffffffffffffffffffffffff1602179055507f89a6354fb229eda6cbc28306798727b4d524818d2c375220bc3f360f24cffaca336040516116899190611f21565b60405180910390a1611912565b60025f8373ffffffffffffffffffffffffffffffffffffffff1673ffffffffffffffffffffffffffffffffffffffff1681526020019081526020015f206001015f8154809291906116e690611e9b565b9190505550600160025f8473ffffffffffffffffffffffffffffffffffffffff1673ffffffffffffffffffffffffffffffffffffffff1681526020019081526020015f206002015f3373ffffffffffffffffffffffffffffffffffffffff1673ffffffffffffffffffffffffffffffffffffffff1681526020019081526020015f205f6101000a81548160ff0219169083151502179055507f53e794ac7461dd84374904409bb8dbb5d63b13abe9e8916f4cde1069b7ca401433836040516117af929190612d48565b60405180910390a16004546002805f8573ffffffffffffffffffffffffffffffffffffffff1673ffffffffffffffffffffffffffffffffffffffff1681526020019081526020015f206001015461180691906129d2565b1061191157600160025f8473ffffffffffffffffffffffffffffffffffffffff1673ffffffffffffffffffffffffffffffffffffffff1681526020019081526020015f205f015f6101000a81548160ff02191690831515021790555060045f81548092919061187490611e9b565b9190505550600733908060018154018082558091505060019003905f5260205f20015f9091909190916101000a81548173ffffffffffffffffffffffffffffffffffffffff021916908373ffffffffffffffffffffffffffffffffffffffff1602179055507f89a6354fb229eda6cbc28306798727b4d524818d2c375220bc3f360f24cffaca336040516119089190611f21565b60405180910390a15b5b5050565b5f8060149054906101000a900460ff16905090565b6003602052805f5260405f205f91509050805f015f9054906101000a900460ff1690806001015490806002015f9054906101000a900473ffffffffffffffffffffffffffffffffffffffff16905083565b5f83838360405160200161199293929190612de7565b6040516020818303038152906040528051906020012090509392505050565b60035f8273ffffffffffffffffffffffffffffffffffffffff1673ffffffffffffffffffffffffffffffffffffffff1681526020019081526020015f205f015f9054906101000a900460ff1615611a3d576040517f08c379a0000000000000000000000000000000000000000000000000000000008152600401611a3490612e69565b60405180910390fd5b5f60035f8373ffffffffffffffffffffffffffffffffffffffff1673ffffffffffffffffffffffffffffffffffffffff1681526020019081526020015f2090505f73ffffffffffffffffffffffffffffffffffffffff16816002015f9054906101000a900473ffffffffffffffffffffffffffffffffffffffff1673ffffffffffffffffffffffffffffffffffffffff1603611b5d576001815f015f6101000a81548160ff02191690831515021790555081816002015f6101000a81548173ffffffffffffffffffffffffffffffffffffffff021916908373ffffffffffffffffffffffffffffffffffffffff1602179055505f81600101819055505f81600301604051611b4a90612ed1565b9081526020016040518091039020819055505b60065f815480929190611b6f90611e9b565b91905055507f704fecb9f0dceb5abb7240cfde618fbf4cdb48ae02d052782b1e6fe22a81ab1d82604051611ba39190611f21565b60405180910390a15050565b5f60025f8473ffffffffffffffffffffffffffffffffffffffff1673ffffffffffffffffffffffffffffffffffffffff1681526020019081526020015f206002015f8373ffffffffffffffffffffffffffffffffffffffff1673ffffffffffffffffffffffffffffffffffffffff1681526020019081526020015f205f9054906101000a900460ff16905092915050565b5f60025f8373ffffffffffffffffffffffffffffffffffffffff1673ffffffffffffffffffffffffffffffffffffffff1681526020019081526020015f205f015f9054906101000a900460ff169050919050565b5f6005546002600a80549050611caa91906129d2565b1015905090565b600a5f611cbe9190611d26565b565b5f60035f8473ffffffffffffffffffffffffffffffffffffffff1673ffffffffffffffffffffffffffffffffffffffff1681526020019081526020015f2060030182604051611d0f91906128c8565b908152602001604051809103902054905092915050565b5080545f8255905f5260205f2090810190611d419190611d44565b50565b5b80821115611d5b575f815f905550600101611d45565b5090565b5f82825260208201905092915050565b7f436f6e74726163742069732063757272656e746c79206e6f74206f70657261745f8201527f696f6e616c000000000000000000000000000000000000000000000000000000602082015250565b5f611dc9602583611d5f565b9150611dd482611d6f565b604082019050919050565b5f6020820190508181035f830152611df681611dbd565b9050919050565b7f496e73756666696369656e742045746865722073656e740000000000000000005f82015250565b5f611e31601783611d5f565b9150611e3c82611dfd565b602082019050919050565b5f6020820190508181035f830152611e5e81611e25565b9050919050565b7f4e487b71000000000000000000000000000000000000000000000000000000005f52601160045260245ffd5b5f819050919050565b5f611ea582611e92565b91507fffffffffffffffffffffffffffffffffffffffffffffffffffffffffffffffff8203611ed757611ed6611e65565b5b600182019050919050565b5f73ffffffffffffffffffffffffffffffffffffffff82169050919050565b5f611f0b82611ee2565b9050919050565b611f1b81611f01565b82525050565b5f602082019050611f345f830184611f12565b92915050565b5f8115159050919050565b611f4e81611f3a565b82525050565b5f602082019050611f675f830184611f45565b92915050565b5f604051905090565b5f80fd5b5f80fd5b611f8781611f01565b8114611f91575f80fd5b50565b5f81359050611fa281611f7e565b92915050565b5f60208284031215611fbd57611fbc611f76565b5b5f611fca84828501611f94565b91505092915050565b611fdc81611f3a565b8114611fe6575f80fd5b50565b5f81359050611ff781611fd3565b92915050565b5f6020828403121561201257612011611f76565b5b5f61201f84828501611fe9565b91505092915050565b61203181611e92565b82525050565b5f60208201905061204a5f830184612028565b92915050565b5f6060820190506120635f830186611f45565b6120706020830185612028565b61207d6040830184611f45565b949350505050565b61208e81611e92565b8114612098575f80fd5b50565b5f813590506120a981612085565b92915050565b5f602082840312156120c4576120c3611f76565b5b5f6120d18482850161209b565b91505092915050565b5f80fd5b5f80fd5b5f601f19601f8301169050919050565b7f4e487b71000000000000000000000000000000000000000000000000000000005f52604160045260245ffd5b612128826120e2565b810181811067ffffffffffffffff82111715612147576121466120f2565b5b80604052505050565b5f612159611f6d565b9050612165828261211f565b919050565b5f67ffffffffffffffff821115612184576121836120f2565b5b61218d826120e2565b9050602081019050919050565b828183375f83830152505050565b5f6121ba6121b58461216a565b612150565b9050828152602081018484840111156121d6576121d56120de565b5b6121e184828561219a565b509392505050565b5f82601f8301126121fd576121fc6120da565b5b813561220d8482602086016121a8565b91505092915050565b5f806040838503121561222c5761222b611f76565b5b5f61223985828601611f94565b925050602083013567ffffffffffffffff81111561225a57612259611f7a565b5b612266858286016121e9565b9150509250929050565b5f805f6060848603121561228757612286611f76565b5b5f6122948682870161209b565b93505060206122a586828701611f94565b925050604084013567ffffffffffffffff8111156122c6576122c5611f7a565b5b6122d2868287016121e9565b9150509250925092565b5f6122e682611ee2565b9050919050565b6122f6816122dc565b82525050565b5f60608201905061230f5f830186611f45565b61231c6020830185612028565b61232960408301846122ed565b949350505050565b5f805f6060848603121561234857612347611f76565b5b5f61235586828701611f94565b935050602084013567ffffffffffffffff81111561237657612375611f7a565b5b612382868287016121e9565b92505060406123938682870161209b565b9150509250925092565b5f819050919050565b6123af8161239d565b82525050565b5f6020820190506123c85f8301846123a6565b92915050565b5f80604083850312156123e4576123e3611f76565b5b5f6123f185828601611f94565b925050602061240285828601611f94565b9150509250929050565b7f50617373656e676572732077616c6c657420697320656d7074790000000000005f82015250565b5f612440601a83611d5f565b915061244b8261240c565b602082019050919050565b5f6020820190508181035f83015261246d81612434565b9050919050565b7f4e6577206d6f6465206d75737420626520646966666572656e742066726f6d205f8201527f6578697374696e67206d6f646500000000000000000000000000000000000000602082015250565b5f6124ce602d83611d5f565b91506124d982612474565b604082019050919050565b5f6020820190508181035f8301526124fb816124c2565b9050919050565b7f54686572652068617320746f206265206174206c656173742032206169726c695f8201527f656e732061626c6520746f2070617274696369706174652c20746f207365742060208201527f636f6e7472616374207374617475730000000000000000000000000000000000604082015250565b5f612582604f83611d5f565b915061258d82612502565b606082019050919050565b5f6020820190508181035f8301526125af81612576565b9050919050565b7f4e487b71000000000000000000000000000000000000000000000000000000005f52603260045260245ffd5b7f43616c6c65722068617320766f746564206265666f72650000000000000000005f82015250565b5f612617601783611d5f565b9150612622826125e3565b602082019050919050565b5f6020820190508181035f8301526126448161260b565b9050919050565b7f416674657220353025206f662074686520746f74616c206169726c696e6520615f8201527f626c6520746f2070617274696369706174652068617320766f7465642c20746860208201527f652073746174757320776f756c64206368616e67650000000000000000000000604082015250565b5f6126cb605583611d5f565b91506126d68261264b565b606082019050919050565b5f6040820190506126f45f830184611f12565b8181036020830152612705816126bf565b905092915050565b7f4169726c696e6520697320616c72656164792061626c6520746f2070617274695f8201527f6369706174650000000000000000000000000000000000000000000000000000602082015250565b5f612767602683611d5f565b91506127728261270d565b604082019050919050565b5f6020820190508181035f8301526127948161275b565b9050919050565b5f6127a582611e92565b91506127b083611e92565b92508282039050818111156127c8576127c7611e65565b5b92915050565b7f496e737572616e636520416d6f756e74206d75737420626520677265617465725f8201527f207468616e203020616e64206c657373207468616e2031206574680000000000602082015250565b5f612828603b83611d5f565b9150612833826127ce565b604082019050919050565b5f6020820190508181035f8301526128558161281c565b9050919050565b5f81519050919050565b5f81905092915050565b5f5b8381101561288d578082015181840152602081019050612872565b5f8484015250505050565b5f6128a28261285c565b6128ac8185612866565b93506128bc818560208601612870565b80840191505092915050565b5f6128d38284612898565b915081905092915050565b5f6128e88261285c565b6128f28185611d5f565b9350612902818560208601612870565b61290b816120e2565b840191505092915050565b5f6040820190506129295f830185611f12565b818103602083015261293b81846128de565b90509392505050565b7f4169726c696e652068617320746f2062652063616e63656c6c656420746f20635f8201527f72656469742070617373656e676572732077616c6c6574000000000000000000602082015250565b5f61299e603783611d5f565b91506129a982612944565b604082019050919050565b5f6020820190508181035f8301526129cb81612992565b9050919050565b5f6129dc82611e92565b91506129e783611e92565b92508282026129f581611e92565b91508282048414831517612a0c57612a0b611e65565b5b5092915050565b7f4e487b71000000000000000000000000000000000000000000000000000000005f52601260045260245ffd5b5f612a4a82611e92565b9150612a5583611e92565b925082612a6557612a64612a13565b5b828204905092915050565b5f612a7a82611e92565b9150612a8583611e92565b9250828201905080821115612a9d57612a9c611e65565b5b92915050565b7f50617373656e6765722077616c657420686173206265656e20637265646974655f8201527f6420666f722063616e63656c6174696f6e206f66206120666c69676874000000602082015250565b5f612afd603d83611d5f565b9150612b0882612aa3565b604082019050919050565b5f606082019050612b265f830185611f12565b8181036020830152612b3881846128de565b90508181036040830152612b4b81612af1565b90509392505050565b7f4f6e6c79206578697374696e67206169726c696e65732063616e2063616c6c205f8201527f746869732066756e6374696f6e00000000000000000000000000000000000000602082015250565b5f612bae602d83611d5f565b9150612bb982612b54565b604082019050919050565b5f6020820190508181035f830152612bdb81612ba2565b9050919050565b7f54686973206169726c696e652068617320766f746564206265666f72650000005f82015250565b5f612c16601d83611d5f565b9150612c2182612be2565b602082019050919050565b5f6020820190508181035f830152612c4381612c0a565b9050919050565b7f546865206e6577206169726c696e6520697320616c72656164792072656769735f8201527f7465726564000000000000000000000000000000000000000000000000000000602082015250565b5f612ca4602583611d5f565b9150612caf82612c4a565b604082019050919050565b5f6020820190508181035f830152612cd181612c98565b9050919050565b7f4169726c696e652077696c6c20626520616464656420616674657220636f6e735f8201527f656e737573206973206d65740000000000000000000000000000000000000000602082015250565b5f612d32602c83611d5f565b9150612d3d82612cd8565b604082019050919050565b5f606082019050612d5b5f830185611f12565b612d686020830184611f12565b8181036040830152612d7981612d26565b90509392505050565b5f8160601b9050919050565b5f612d9882612d82565b9050919050565b5f612da982612d8e565b9050919050565b612dc1612dbc82611f01565b612d9f565b82525050565b5f819050919050565b612de1612ddc82611e92565b612dc7565b82525050565b5f612df28286612db0565b601482019150612e028285612898565b9150612e0e8284612dd0565b602082019150819050949350505050565b7f54686973207573657220697320616c726561647920612070617373656e6765725f82015250565b5f612e53602083611d5f565b9150612e5e82612e1f565b602082019050919050565b5f6020820190508181035f830152612e8081612e47565b9050919050565b7f44656661756c74466c69676874000000000000000000000000000000000000005f82015250565b5f612ebb600d83612866565b9150612ec682612e87565b600d82019050919050565b5f612edb82612eaf565b915081905091905056fea2646970667358221220410aa3400cbe1bf95b9ffb1fd516179b519ed77b33b64cafb5b2ab885568218564736f6c63430008140033",
  "immutableReferences": {},
  "source": "// // SPDX-License-Identifier: MIT\n// pragma solidity ^0.8.0;\n\n// interface IFlightSuretyData {\n//     function registerAirline(address newAirline) external;\n//     function isOperational() external view returns (bool);\n//     function setOperatingStatus(bool mode) external;\n//     function buy(address pasenger, string memory flighName) external payable;\n//     function creditInsurees(uint statusCode, address passenger, string memory flightName) external;\n//     function pay(address  passenger) external payable ;\n//   //function fund(address newAirline) external payable;\n//     function getFlightKey(address airline,string memory flight,uint256 timestamp)external  pure returns (bytes32);\n//    function isAnAirline(address airline) external view returns (bool);\n//   function votedBefore(address airline, address voter) external view returns (bool);\n\n// }\n\n// contract FlightSuretyData is IFlightSuretyData  {\n\n//   address private contractOwner; // Account used to deploy contract\n//   //set this to private back\n//   bool public  operational = true; // Blocks all state changes throughout the contract if false\n//   uint public airlineregFee = 10 ether;\n\n//     struct Airline {\n//         bool registered;\n//         uint voteCount;\n//         mapping(address => bool) votes;\n//         bool ableToParticipate;\n//     } \n\n//   struct Passenger {\n//     bool isPassenger;\n//     uint wallet;\n//     address payable owner;\n//     mapping(string => uint) flightNameToAmountOfInsurancePaid;\n//   }\n\n//   uint8 private constant STATUS_CODE_LATE_AIRLINE = 20;\n\n\n//     mapping(address => Airline) public airlines; //address => Airline mapping\n//     mapping(address => Passenger) public passengers; //address => Passenger mapping\n//     uint public totalAirlines;\n//     uint public totalAirlinesAbleToParticipate;\n//     uint public totalPassengers;\n//     address[] public allAirlines;\n//     address[] public allPassengers;\n//     address[] public airlineAbleToParticipate; \n//     address[] public airlineThatHaveVotedForContractStatusChange;\n//     /********************************************************************************************/\n//   /*                                       EVENT DEFINITIONS                                  */\n//   /********************************************************************************************/\n\n//     event AirlineRegistered(address newAirline);\n//     event VoteRecorded(address voter, address votee, string message);\n//     event PassengerCreated(address newPassenger);\n//     event InsurancePurchased(address passenger, string flightName);\n//     event PassengerWalletCredited(address passenger, string flightName, string message);\n//     event PayoutSuccessful(address passenger);\n//     event AirlineCanParticipate(address airline);\n//     event OpearationalStatusVoteRecorded(address airline, string message);\n//     event OperationalStatusChanged();\n//     event ResetStatusOfVotersToZero();\n\n\n//     modifier onlyExistingAirlines() {\n//         require(airlines[msg.sender].registered, \"Only existing airlines can call this function\");\n//         _;\n//     }\n\n//   modifier isAPassenger() {\n//     require(passengers[msg.sender].isPassenger, \"Must be a passenger\");\n//     _;\n//   }\n    \n\n//     // modifier airlineHasNotVoted(address newAirline) {\n//     //     require(!airlines[newAirline].votes[msg.sender], \"This airline has already voted for the new airline\");\n//     //     _;\n//     // }\n\n//      modifier airlineHasNotVoted(address newAirline) virtual  {\n//         require(!airlines[newAirline].votes[msg.sender], \"This airline has voted before\");\n//         _;\n//     }\n\n  \n//      /**\n//    * @dev Modifier that requires the \"operational\" boolean variable to be \"true\"\n//    *      This is used on all state changing functions to pause the contract in\n//    *      the event there is an issue that needs to be fixed\n//    */\n//   modifier requireIsOperational() {\n//     require(operational, \"Contract is currently not operational\");\n//     _; // All modifiers require an \"_\" which indicates where the function body will be added\n//   }\n//     /**\n//    * @dev Modifier that requires the \"ContractOwner\" account to be the function caller\n//    */\n//   modifier requireContractOwner() {\n//     require(msg.sender == contractOwner, \"Caller is not contract owner\");\n//     _;\n//   }\n\n//     //use this for all the function that handlles money\n//   modifier mustBeAbleToParticipate (address newAirline) { //use this on all other functions\n//     require(airlines[newAirline].ableToParticipate, \"Airline isn't able to participate, an airline must pay 10 Eth to be able to\");\n//     _;\n//   }\n\n//     constructor () payable {\n//         contractOwner = msg.sender;\n\n//         //register airline\n//         airlines[msg.sender].registered = true;\n//         allAirlines.push(msg.sender);\n//         totalAirlines++;\n//         emit AirlineRegistered(msg.sender);\n//     }   \n\n//     function registerAirline(address newAirline) external override  requireIsOperational onlyExistingAirlines airlineHasNotVoted(newAirline) {\n//         require(!airlines[newAirline].registered, \"The new airline is already registered\");\n//         // If less than 4 airlines, register the new airline directly\n//         if (totalAirlines < 4) {\n//             airlines[newAirline].registered = true;\n//             totalAirlines++;\n//             allAirlines.push(newAirline);\n//             emit AirlineRegistered(msg.sender);\n//         } else {\n//             // If 4 or more airlines, initiate the voting process\n//             airlines[newAirline].voteCount++;\n//             airlines[newAirline].votes[msg.sender] = true;\n//             emit VoteRecorded(msg.sender, newAirline, \"Airline will be added after consensus is met\");\n\n//             // Check if more than 50% of the existing airlines have voted\n//             if (airlines[newAirline].voteCount * 2 >= totalAirlines) { //if the total airline is even, the vote count will be rounded up\n//                 airlines[newAirline].registered = true;\n//                 totalAirlines++;\n//                 allAirlines.push(msg.sender);\n//                 emit AirlineRegistered(msg.sender);\n//             }\n//         }\n//     }\n\n\n//     //  function registerAirline(address newAirline) external override  {\n//     //     require(!airlines[newAirline].registered, \"The new airline is already registered\");\n\n//     //     // If less than 4 airlines, register the new airline directly\n//     //     if (totalAirlines < 4) {\n//     //         airlines[newAirline].registered = true;\n//     //         totalAirlines++;\n//     //         allAirlines.push(newAirline);\n//     //         emit AirlineRegistered(msg.sender);\n//     //     } else {\n//     //         // If 4 or more airlines, initiate the voting process\n//     //         airlines[newAirline].voteCount++;\n//     //         airlines[newAirline].votes[msg.sender] = true;\n//     //         emit VoteRecorded(msg.sender, newAirline, \"Airline will be added after consensus is met\");\n\n//     //         // Check if more than 50% of the existing airlines have voted\n//     //         if (airlines[newAirline].voteCount >= totalAirlines / 2) {\n//     //             airlines[newAirline].registered = true;\n//     //             totalAirlines++;\n//     //             allAirlines.push(msg.sender);\n//     //             emit AirlineRegistered(msg.sender);\n//     //         }\n//     //     }\n//     // }\n\n    \n\n//     /**\n//    * @dev Get operating status of contract\n//    *\n//    * @return A bool that is the current operating status\n//    */\n//   function isOperational() external view returns (bool) {\n//     return operational;\n//   }\n//   /**]\n//    * @dev Sets contract operations on/off\n//    *\n//    * When operational mode is disabled, all write transactions except for this one will fail\n//    */\n\n//   //  only airlines that are able to participate will be able to change this.\n//   // so this will change when 50% of airlines able to participate have voted.\n//   // if 50% or more have voted then this can be changed\n//   /////////////////////////\n//   function setOperatingStatus(bool mode) external onlyExistingAirlines mustBeAbleToParticipate(msg.sender) {\n//      require(mode != operational, \"New mode must be different from existing mode\");\n//      require(totalAirlinesAbleToParticipate >= 2, \"There has to be at least 2 airliens able to participate, to set contract status\"); //so everyone will not be locked out if we have one bad actor\n//     //only airlines able to participate can call this.\n//     bool isDuplicate = false; // Check if caller has already called this function\n//     for(uint c = 0; c < airlineThatHaveVotedForContractStatusChange.length; c++){\n//       if(airlineThatHaveVotedForContractStatusChange[c] == msg.sender){\n//         isDuplicate = true;\n//         break;\n//       }\n//     }\n//     require(!isDuplicate, \"Caller has voted before\");\n//     airlineThatHaveVotedForContractStatusChange.push(msg.sender);\n//     emit OpearationalStatusVoteRecorded(msg.sender, \"After 50% of the total airline able to participate has voted, the status would change\");\n//     //50% of airline able to partcipate are the ones that can set the operational status of the contract\n//     if(hasReachedMajority()){\n//         operational = mode; //setting the operational status\n//         emit OperationalStatusChanged();\n//         resetVoting();\n//         emit ResetStatusOfVotersToZero();\n//     }\n//   }\n//    //at least 50% of airlines able to participate has voted => bool\n//   function hasReachedMajority() internal view returns (bool) {\n//     return airlineThatHaveVotedForContractStatusChange.length * 2 >= totalAirlinesAbleToParticipate;\n//   }\n\n// // Function to reset the voting process of the operational status\n//   function resetVoting() internal {\n//       delete airlineThatHaveVotedForContractStatusChange;\n//   }\n//   /////////////////////////\n\n//    function isAnAirline(address airline) external override view returns (bool) {\n//         return airlines[airline].registered;\n//   }\n\n//   function thisIsAPassenger(address passenger) external  view returns (bool){\n//     return passengers[passenger].isPassenger;\n//   }\n\n//   function votedBefore(address newAirline, address voter) external override view returns (bool) {\n//     return airlines[newAirline].votes[voter];\n//   }\n\n//   function createPassenger (address passenger) public requireIsOperational {\n//       Passenger storage newPassenger = passengers[passenger];\n//       if(newPassenger.owner == address(0)){\n//         newPassenger.isPassenger = true;\n//         newPassenger.owner = payable(msg.sender);\n//         newPassenger.wallet = 0;\n//         newPassenger.flightNameToAmountOfInsurancePaid[\"DefaultFlight\"] = 0;\n//       }\n//       totalPassengers++;\n//       emit PassengerCreated(passenger);\n//     }\n// /**\n//   //pasaengers can purchase insurance, if their flight is delayed or cancelled, they can get paid.\n//    * @dev Buy insurance for a flight i:e \n//    *\n//    */ //only addresses that are marked as passengers can call this\n//   function buy(address passenger, string memory flightName) external payable requireIsOperational isAPassenger {\n//     require(msg.value > 0 && msg.value <= 1 ether, \"Insurance Amount must be greater than 0 and less than 1 eth\"); //ensure that the amount tendered is less than 1eth\n\n//     Passenger storage newPassenger = passengers[passenger];\n//     //set the passenger owner and flightNameToAmountOfInsureancePaid mapping\n//       newPassenger.owner = payable(passenger);\n//       newPassenger.flightNameToAmountOfInsurancePaid[flightName] = msg.value;\n//       emit InsurancePurchased(passenger, flightName);\n//   }\n//   /**\n//    *  @dev Credits payouts to insurees\n//    */ //credit the passengers wallet based on if the status code is 20, meaning their flight is missed, credit them with 1.5 * what the paid to buy the insurance\n//   function creditInsurees(uint statusCode, address passenger, string memory flightName) external requireIsOperational onlyExistingAirlines mustBeAbleToParticipate(msg.sender)  {\n//     require(statusCode == STATUS_CODE_LATE_AIRLINE, \"Airline has to be cancelled to credit passengers wallet\");\n//     if(statusCode == STATUS_CODE_LATE_AIRLINE){\n//     //get the amount paid to buy the insurance, by putting in the parameters\n//     uint amount = getAmountPaidByPassengerForInsurance(passenger, flightName);\n//     //multiply the amount by 1.5\n//      amount = amount * 150 / 100;\n//     //credit the pasengers wallet\n//     passengers[passenger].wallet += amount;\n//     emit PassengerWalletCredited(passenger, flightName, \"Passenger walet has been credited for cancelation of a flight\");\n//     }\n//   }\n\n//   function getAmountPaidByPassengerForInsurance (address passenger, string memory flightName) internal view returns (uint amount) {\n//     return passengers[passenger].flightNameToAmountOfInsurancePaid[flightName];\n//   }\n\n//   /**\n//    *  @dev Transfers eligible payout funds to insuree\n//    *\n//    */ //passengers can pay themselves from the money in their wallet\n//   function pay(address  passenger) external payable requireIsOperational isAPassenger {\n    \n//     uint  amountInWallet = passengers[passenger].wallet;\n//     if(amountInWallet > 0){\n//       //get owner of wallet\n//       address payable ownerOfWallet = passengers[passenger].owner;\n//       //set the wallet to 0 first\n//       passengers[passenger].wallet = 0;\n//       //transfer to the wallet\n//       ownerOfWallet.transfer(amountInWallet);\n//       //emit event\n//       emit PayoutSuccessful(passenger);\n//     }\n//   }\n//   /**\n//    * @dev Initial funding for the insurance. Unless there are too many delayed flights\n//    *      resulting in insurance payouts, the contract should be self-sustaining\n//    *\n//    */ //so the airlines will call this, to pay the require 10eth to the contract to make sure they are able participate\n//   function fund(address airline) external payable requireIsOperational onlyExistingAirlines {\n//      require(airlines[airline].ableToParticipate == false, \"Airline is already able to participate\"); //check that airline hasnt paid the required 10eth to join before\n//      require(msg.value >= airlineregFee, \"Insufficient Ether sent\");\n//     //      // Using transfer with an explicit value to avoid reentrancy issues\n//         uint excessAmount = msg.value - airlineregFee;\n//     //     //send excess amount back to airline\n//         if(excessAmount > 0) {\n//           payable(airline).transfer(excessAmount); //transfer the balance back\n//         }\n//         airlines[airline].ableToParticipate = true;\n//         totalAirlinesAbleToParticipate++;\n//         airlineAbleToParticipate.push(airline);\n//         emit AirlineCanParticipate(airline);\n\n\n//   }\n\n//   function getFlightKey(\n//     address airline,\n//     string memory flight,\n//     uint256 timestamp\n//   ) external  pure virtual   returns (bytes32) {\n//     return keccak256(abi.encodePacked(airline, flight, timestamp));\n//   }\n\n\n//    /**\n//  * @dev Fallback function for funding smart contract.\n//  */\n\n//  receive() external payable requireIsOperational {\n//     // Check if the Ether amount is greater than or equal to 10 ether\n//     require(msg.value >= airlineregFee, \"Insufficient Ether sent\");\n//      //register airline\n//         airlines[msg.sender].registered = true;\n//         //make them able to participate\n//         airlines[msg.sender].ableToParticipate = true;\n\n//         //push to the list of airlines\n//         allAirlines.push(msg.sender);\n\n//         airlineAbleToParticipate.push(msg.sender);\n\n//         //increment airlineCount\n//         totalAirlines++;\n//         totalAirlinesAbleToParticipate++;\n//         //emit events\n//         emit AirlineRegistered(msg.sender);\n//         emit AirlineCanParticipate(msg.sender);\n//   }\n// }\n\n\n\npragma solidity ^0.8.0;\n\ninterface IFlightSuretyDataInterface {\n    function registerAirline(address newAirline) external;\n    function isOperational() external view returns (bool);\n    function setOperatingStatus(bool mode) external;\n    function buy(address pasenger, string memory flighName) external payable;\n    function creditInsurees(uint statusCode, address passenger, string memory flightName) external;\n    function pay(address  passenger) external payable ;\n  function fund(address newAirline) external payable;\n  function getFlightKey(address airline,string memory flight,uint256 timestamp)external  pure returns (bytes32);\n  function isAnAirline(address airline) external view returns (bool);\n  function votedBefore(address airline, address voter) external view returns (bool);\n  function airlineIsableToParticipate(address airline) external view  returns (bool);\n  function createPassenger (address passenger) external;\n  function thisIsAPassenger(address passenger) external  view returns (bool);\n\n}\n\ncontract FlightSuretyData is IFlightSuretyDataInterface  {\n\n  address private contractOwner; // Account used to deploy contract\n  //set this to private back\n  bool public  operational = true; // Blocks all state changes throughout the contract if false\n  uint public airlineregFee = 10 ether;\n\n    struct Airline {\n        bool registered;\n        uint voteCount;\n        mapping(address => bool) votes;\n        bool ableToParticipate;\n    } \n\n  struct Passenger {\n    bool isPassenger;\n    uint wallet;\n    address payable owner;\n    mapping(string => uint) flightNameToAmountOfInsurancePaid;\n  }\n\n  uint8 private constant STATUS_CODE_LATE_AIRLINE = 20;\n\n\n    mapping(address => Airline) public airlines; //address => Airline mapping\n    mapping(address => Passenger) public passengers; //address => Passenger mapping\n    uint public totalAirlines;\n    uint public totalAirlinesAbleToParticipate;\n    uint public totalPassengers;\n    address[] public allAirlines;\n    address[] public allPassengers;\n    address[] public airlineAbleToParticipate; \n    address[] public airlineThatHaveVotedForContractStatusChange;\n    /********************************************************************************************/\n  /*                                       EVENT DEFINITIONS                                  */\n  /********************************************************************************************/\n\n    event AirlineRegistered(address newAirline);\n    event VoteRecorded(address voter, address votee, string message);\n    event PassengerCreated(address newPassenger);\n    event InsurancePurchased(address passenger, string flightName);\n    event PassengerWalletCredited(address passenger, string flightName, string message);\n    event PayoutSuccessful(address passenger);\n    event AirlineCanParticipate(address airline);\n    event OpearationalStatusVoteRecorded(address airline, string message);\n    event OperationalStatusChanged();\n    event ResetStatusOfVotersToZero();\n\n\n    modifier onlyExistingAirlines() {\n        require(airlines[msg.sender].registered, \"Only existing airlines can call this function\");\n        _;\n    }\n\n  modifier isAPassenger() {\n    require(passengers[msg.sender].isPassenger, \"Must be a passenger\");\n    _;\n  }\n    \n\n    // modifier airlineHasNotVoted(address newAirline) {\n    //     require(!airlines[newAirline].votes[msg.sender], \"This airline has already voted for the new airline\");\n    //     _;\n    // }\n\n     modifier airlineHasNotVoted(address newAirline) virtual  {\n        require(!airlines[newAirline].votes[msg.sender], \"This airline has voted before\");\n        _;\n    }\n\n  \n     /**\n   * @dev Modifier that requires the \"operational\" boolean variable to be \"true\"\n   *      This is used on all state changing functions to pause the contract in\n   *      the event there is an issue that needs to be fixed\n   */\n  modifier requireIsOperational() {\n    require(operational, \"Contract is currently not operational\");\n    _; // All modifiers require an \"_\" which indicates where the function body will be added\n  }\n    /**\n   * @dev Modifier that requires the \"ContractOwner\" account to be the function caller\n   */\n  modifier requireContractOwner() {\n    require(msg.sender == contractOwner, \"Caller is not contract owner\");\n    _;\n  }\n\n    //use this for all the function that handlles money\n  modifier mustBeAbleToParticipate (address newAirline) { //use this on all other functions\n    require(airlines[newAirline].ableToParticipate, \"Airline isn't able to participate, an airline must pay 10 Eth to be able to\");\n    _;\n  }\n\n    constructor () payable {\n        contractOwner = msg.sender;\n\n        //register airline\n        airlines[msg.sender].registered = true;\n        allAirlines.push(msg.sender);\n        totalAirlines++;\n        emit AirlineRegistered(msg.sender);\n    }   \n\n    function registerAirline(address newAirline) external override  requireIsOperational onlyExistingAirlines airlineHasNotVoted(newAirline) {\n        require(!airlines[newAirline].registered, \"The new airline is already registered\");\n        // If less than 4 airlines, register the new airline directly\n        if (totalAirlines < 4) {\n            airlines[newAirline].registered = true;\n            totalAirlines++;\n            allAirlines.push(newAirline);\n            emit AirlineRegistered(msg.sender);\n        } else {\n            // If 4 or more airlines, initiate the voting process\n            airlines[newAirline].voteCount++;\n            airlines[newAirline].votes[msg.sender] = true;\n            emit VoteRecorded(msg.sender, newAirline, \"Airline will be added after consensus is met\");\n\n            // Check if more than 50% of the existing airlines have voted\n            if (airlines[newAirline].voteCount * 2 >= totalAirlines) { //if the total airline is even, the vote count will be rounded up\n                airlines[newAirline].registered = true;\n                totalAirlines++;\n                allAirlines.push(msg.sender);\n                emit AirlineRegistered(msg.sender);\n            }\n        }\n    }\n\n\n    /**\n   * @dev Get operating status of contract\n   *\n   * @return A bool that is the current operating status\n   */\n  function isOperational() external view returns (bool) {\n    return operational;\n  }\n  /**]\n   * @dev Sets contract operations on/off\n   *\n   * When operational mode is disabled, all write transactions except for this one will fail\n   */\n\n  //  only airlines that are able to participate will be able to change this.\n  // so this will change when 50% of airlines able to participate have voted.\n  // if 50% or more have voted then this can be changed\n  /////////////////////////\n  function setOperatingStatus(bool mode) external override  {\n     require(mode != operational, \"New mode must be different from existing mode\");\n     require(totalAirlinesAbleToParticipate >= 2, \"There has to be at least 2 airliens able to participate, to set contract status\"); //so everyone will not be locked out if we have one bad actor\n    //only airlines able to participate can call this.\n    bool isDuplicate = false; // Check if caller has already called this function\n    for(uint c = 0; c < airlineThatHaveVotedForContractStatusChange.length; c++){\n      if(airlineThatHaveVotedForContractStatusChange[c] == msg.sender){\n        isDuplicate = true;\n        break;\n      }\n    }\n    require(!isDuplicate, \"Caller has voted before\");\n    airlineThatHaveVotedForContractStatusChange.push(msg.sender);\n    emit OpearationalStatusVoteRecorded(msg.sender, \"After 50% of the total airline able to participate has voted, the status would change\");\n    //50% of airline able to partcipate are the ones that can set the operational status of the contract\n    if(hasReachedMajority()){\n        operational = mode; //setting the operational status\n        emit OperationalStatusChanged();\n        resetVoting();\n        emit ResetStatusOfVotersToZero();\n    }\n  }\n   //at least 50% of airlines able to participate has voted => bool\n  function hasReachedMajority() internal view returns (bool) {\n    return airlineThatHaveVotedForContractStatusChange.length * 2 >= totalAirlinesAbleToParticipate;\n  }\n\n// Function to reset the voting process of the operational status\n  function resetVoting() internal {\n      delete airlineThatHaveVotedForContractStatusChange;\n  }\n  /////////////////////////\n\n   function isAnAirline(address airline) external override view returns (bool) {\n        return airlines[airline].registered;\n  }\n\n  function thisIsAPassenger(address passenger) external  view returns (bool){\n    return passengers[passenger].isPassenger;\n  }\n\n  function votedBefore(address airline, address voter) external  view returns (bool) {\n    return airlines[airline].votes[voter];\n  }\n \n  function airlineIsableToParticipate(address airline) external view  returns (bool) {\n    return airlines[airline].ableToParticipate;\n  }\n\n  // modifier requireIsOperational() {\n  //   require(operational, \"Contract is currently not operational\");\n  //   _; // All modifiers require an \"_\" which indicates where the function body will be added\n  // }\n\n  function createPassenger (address passenger) external override  {\n    require(!passengers[passenger].isPassenger, \"This user is already a passenger\");\n      Passenger storage newPassenger = passengers[passenger];\n      if(newPassenger.owner == address(0)){\n        newPassenger.isPassenger = true;\n        newPassenger.owner = payable(passenger);\n        newPassenger.wallet = 0;\n        newPassenger.flightNameToAmountOfInsurancePaid[\"DefaultFlight\"] = 0;\n      }\n      totalPassengers++;\n      emit PassengerCreated(passenger);\n    }\n/**\n  //pasaengers can purchase insurance, if their flight is delayed or cancelled, they can get paid.\n   * @dev Buy insurance for a flight i:e \n   *\n   */ //only addresses that are marked as passengers can call this\n  function buy(address passenger, string memory flightName) external payable override {\n    require(msg.value > 0 && msg.value <= 1 ether, \"Insurance Amount must be greater than 0 and less than 1 eth\"); //ensure that the amount tendered is less than 1eth\n    Passenger storage newPassenger = passengers[passenger];\n    //set the passenger owner and flightNameToAmountOfInsureancePaid mapping\n      newPassenger.owner = payable(passenger);\n      newPassenger.flightNameToAmountOfInsurancePaid[flightName] = msg.value;\n      emit InsurancePurchased(passenger, flightName);\n  }\n  /**\n   *  @dev Credits payouts to insurees\n   */ //credit the passengers wallet based on if the status code is 20, meaning their flight is missed, credit them with 1.5 * what the paid to buy the insurance\n  function creditInsurees(uint statusCode, address passenger, string memory flightName) external override    {\n    require(statusCode == STATUS_CODE_LATE_AIRLINE, \"Airline has to be cancelled to credit passengers wallet\");\n    if(statusCode == STATUS_CODE_LATE_AIRLINE){\n    //get the amount paid to buy the insurance, by putting in the parameters\n    uint amount = getAmountPaidByPassengerForInsurance(passenger, flightName);\n    //multiply the amount by 1.5\n     amount = amount * 150 / 100;\n    //credit the pasengers wallet\n    passengers[passenger].wallet += amount;\n    emit PassengerWalletCredited(passenger, flightName, \"Passenger walet has been credited for cancelation of a flight\");\n    }\n  }\n\n  function getAmountPaidByPassengerForInsurance (address passenger, string memory flightName) internal view returns (uint amount) {\n    return passengers[passenger].flightNameToAmountOfInsurancePaid[flightName];\n  }\n\n  /**\n   *  @dev Transfers eligible payout funds to insuree\n   *\n   */ //passengers can pay themselves from the money in their wallet\n  function pay(address  passenger) external payable override  {\n    uint  amountInWallet = passengers[passenger].wallet;\n    require(amountInWallet > 0, \"Passengers wallet is empty\"); //passengers wallet must not be empty\n\n    if(amountInWallet > 0){\n      //get owner of wallet\n      address payable ownerOfWallet = passengers[passenger].owner;\n      //set the wallet to 0 first\n      passengers[passenger].wallet = 0;\n      //transfer to the wallet\n      ownerOfWallet.transfer(amountInWallet);\n      //emit event\n      emit PayoutSuccessful(passenger);\n    }\n  }\n  /**\n   * @dev Initial funding for the insurance. Unless there are too many delayed flights\n   *      resulting in insurance payouts, the contract should be self-sustaining\n   *\n   */ //so the airlines will call this, to pay the require 10eth to the contract to make sure they are able participate\n  function fund(address airline) external payable override   {\n     require(airlines[airline].ableToParticipate == false, \"Airline is already able to participate\"); //check that airline hasnt paid the required 10eth to join before\n     require(msg.value >= airlineregFee, \"Insufficient Ether sent\");\n    //      // Using transfer with an explicit value to avoid reentrancy issues\n        uint excessAmount = msg.value - airlineregFee;\n    //     //send excess amount back to airline\n        if(excessAmount > 0) {\n          payable(airline).transfer(excessAmount); //transfer the balance back\n        }\n        airlines[airline].ableToParticipate = true;\n        totalAirlinesAbleToParticipate++;\n        airlineAbleToParticipate.push(airline);\n        emit AirlineCanParticipate(airline);\n  }\n\n  function getFlightKey(\n    address airline,\n    string memory flight,\n    uint256 timestamp\n  ) external  pure virtual   returns (bytes32) {\n    return keccak256(abi.encodePacked(airline, flight, timestamp));\n  }\n\n\n   /**\n * @dev Fallback function for funding smart contract.\n */\n\n receive() external payable requireIsOperational {\n    // Check if the Ether amount is greater than or equal to 10 ether\n    require(msg.value >= airlineregFee, \"Insufficient Ether sent\");\n     //register airline\n        airlines[msg.sender].registered = true;\n        //make them able to participate\n        airlines[msg.sender].ableToParticipate = true;\n\n        //push to the list of airlines\n        allAirlines.push(msg.sender);\n\n        airlineAbleToParticipate.push(msg.sender);\n\n        //increment airlineCount\n        totalAirlines++;\n        totalAirlinesAbleToParticipate++;\n        //emit events\n        emit AirlineRegistered(msg.sender);\n        emit AirlineCanParticipate(msg.sender);\n  }\n}\n",
  "sourcePath": "/Users/femi/Github/udacity-Blockchain/FlightSurety/frontend/src/truffle/contracts/FlightSuretyData.sol",
  "compiler": {
    "name": "solc",
    "version": "0.8.20+commit.a1b79de6.Emscripten.clang"
  },
  "schemaVersion": "3.4.3",
  "updatedAt": "2024-02-05T14:43:14.866Z",
  "networkType": "ethereum",
  "devdoc": {
    "kind": "dev",
    "methods": {
      "buy(address,string)": {
        "details": "Buy insurance for a flight i:e "
      },
      "creditInsurees(uint256,address,string)": {
        "details": "Credits payouts to insurees"
      },
      "fund(address)": {
        "details": "Initial funding for the insurance. Unless there are too many delayed flights      resulting in insurance payouts, the contract should be self-sustaining"
      },
      "isOperational()": {
        "details": "Get operating status of contract",
        "returns": {
          "_0": "A bool that is the current operating status"
        }
      },
      "pay(address)": {
        "details": "Transfers eligible payout funds to insuree"
      },
      "setOperatingStatus(bool)": {
        "details": "Sets contract operations on/off When operational mode is disabled, all write transactions except for this one will fail"
      }
    },
    "version": 1
  },
  "userdoc": {
    "kind": "user",
    "methods": {
      "buy(address,string)": {
        "notice": "//pasaengers can purchase insurance, if their flight is delayed or cancelled, they can get paid."
      },
      "setOperatingStatus(bool)": {
        "notice": "]"
      }
    },
    "version": 1
  }
}